:1000000000800020BD0100007122000035220000A8
:100010003522000035220000352200003522000084
:100020003522000035220000352200007122000038
:100030007122000035220000893D0000793E000059
:100040007122000071220000712200007122000064
:100050007122000071220000712200007122000054
:100060007122000071220000712200007122000044
:100070007122000071220000712200007122000034
:100080007122000071220000712200007122000024
:100090007122000071220000712200007122000014
:1000A00011210000212100007122000071220000B6
:1000B00071220000712200007122000071220000F4
:1000C00071220000712200007122000071220000E4
:1000D00071220000712200007122000071220000D4
:1000E00071220000712200007122000071220000C4
:1000F000712200004D39000071220000913A000089
:1001000071220000D53B0000712200007122000026
:100110007122000071220000712200007122000093
:100120007122000071220000712200007122000083
:100130007122000071220000712200007122000073
:100140007122000071220000712200007122000063
:100150007122000071220000712200007122000053
:10016000712200009128000071220000712200001D
:100170007122000071220000712200007122000033
:100180007122000071220000712200007122000023
:100190007122000071220000712200007122000013
:1001A0007122000071220000712200007122000003
:1001B000712200007122000071220000564B4CF2A7
:1001C000205210B51A804DF628121A8000BF00BFC9
:1001D00002F052F8514B4FF010621A60504A9A6088
:1001E000504ADA60504A136813F4807304D14F49BF
:1001F0000B604FF4A85313604D4B1A78110703D5C9
:100200001A7842F008021A704A4B4B492A221A7097
:100210004A4A4B4B8B4204D252F8040F43F8040B6A
:10022000F8E7484B484900228B4202D243F8042B9E
:10023000FAE74649464A002352F8230041F82300D2
:1002400001336F2BF8D1434B434A802103F8011B44
:100250009342FBD1414B3D4A1A60414B8A221A70AE
:10026000A3F5805324225A70A0221A709A7992071B
:10027000FCD59A79D406FCD43A4A937903F00C035E
:10028000082B384BF9D103221A7140225A719A79FE
:100290009006FCD5334A9179324B4906FBD5324A58
:1002A000324911600221516020221A709A7902F0BD
:1002B0000C020C2AFAD12E4B2E4A1A602E4B4BF60A
:1002C0007F321A6000225A60072243F8042C2B4A1E
:1002D000C3F80C2D62B602F099F9144B1B68DA07CB
:1002E00005D5274802F056F8264B274A1A60274BB7
:1002F0001B785B0609D5234C234B22689A4204D114
:100300001F4802F047F80023236004F03FFA01F091
:10031000B9FF03F037F9FEE70E20054030800440B6
:10032000823F04000100002B10D0034014D0034092
:1003300002D0074000E007402898FF1F709200009D
:100340002087FF1F2898FF1F009CFF1F0082FF1FB0
:100350000000000000E400E05FE400E008ED00E0E1
:100360000050064000400640448004400000131145
:1003700004800440C010050014E000E000002020CC
:10038000443CB55A1CE00340A5C3945A00F0074012
:10039000FFFFFFFFFFFFFFFFFFFFFFFFFFFFFFFF6D
:1003A000FFFFFFFFFFFFFFFFFFFFFFFFFFFFFFFF5D
:1003B000FFFFFFFFFFFFFFFFFFFFFFFFFFFFFFFF4D
:1003C000FFFFFFFFFFFFFFFFFFFFFFFFFFFFFFFF3D
:1003D000FFFFFFFFFFFFFFFFFFFFFFFFFFFFFFFF2D
:1003E000FFFFFFFFFFFFFFFFFFFFFFFFFFFFFFFF1D
:1003F000FFFFFFFFFFFFFFFFFFFFFFFFFFFFFFFF0D
:10040000FFFFFFFFFFFFFFFFFFFFFFFFDEF9FFFF23
:1004100010B5054C237833B9044B13B10448AFF33E
:1004200000800123237010BD2898FF1F00000000EA
:100430006C920000084B10B51BB108490848AFF397
:1004400000800848036803B910BD074B002BFBD0A0
:10045000BDE81040184700BF000000002C98FF1FA7
:100460006C9200002898FF1F0000000000207047D9
:1004700010B50446083000F0C1FC204610BD00BF96
:1004800070B586B03749384C384A394E42F20F7051
:100490000B7813F0FF0F5DD0237813F0030F59D0C2
:1004A000136835685B1B182B54D9324B1A798DF8B9
:1004B00008209A6803921A7B8DF810202E4A019228
:1004C0005A7B8DF811201B6905932C4D2C4B01AAEA
:1004D0005821284600F0B2FA01A800F08FFC284607
:1004E00000F032FA274C02462749204602F0F6FF78
:1004F0000221284600F00CFA284600F027FA234D86
:100500004FF4FA632B8023685B680D222049204654
:1005100098472B881F49A1FB03318909204603F026
:1005200027F823685B6806221B4920469847236802
:100530005B680F22194920469847204602F0B6FF13
:1005400023685B680122164920469847204602F03E
:10055000ADFF05E013680093009B834298D9A4E7A0
:1005600006B070BDF499FF1F049AFF1F1099FF1F7A
:10057000F89BFF1FE898FF1FFC8C00005898FF1F96
:10058000588A0000C88DFF1F608A0000C098FF1FB6
:10059000848A0000D34D6210948A00009C8A000077
:1005A0006C8C00002DE9F04F85B0A94B1B680393BC
:1005B000039BA84AA2FB0332A74E9209A7493046E3
:1005C00002F08CFFDFF8F8920424C9F80040A44D33
:1005D000DFF8F0822B4622469821404600F048FA88
:1005E000A04F38702A46A049304602F077FF3220EB
:1005F00001F0F6FF0222C9F800202B4620214046D8
:1006000000F036FA38702A469849304602F066FF04
:10061000322001F0E5FFC9F800402B4622468D212B
:10062000404600F025FA38702A469149304602F0DB
:1006300055FF322001F0D4FFC9F800402B46224676
:100640002121404600F014FA38702A468949304684
:1006500002F044FF322001F0C3FFC9F800402B46EE
:1006600022468B21404600F003FA38702A46824920
:10067000304602F033FF322001F0B2FFC9F80040EB
:100680002B462246A421404600F0F2F938702A4653
:100690007A49304602F022FFC9F800402B46224634
:1006A000A521404600F0E4F938702A4674493046E6
:1006B00002F014FFC9F800402B4622462421404690
:1006C00000F0D6F938702A466E49304602F006FF2F
:1006D000C9F800402B462246A621404600F0C8F942
:1006E00038702A466849304602F0F8FEC9F80040E2
:1006F0002B4622468C21404600F0BAF938702A4633
:100700006249304602F0EAFEC9F800402B46224614
:10071000A621404600F0ACF938702A465C493046C4
:1007200002F0DCFEC9F800402B46224690214046EC
:1007300000F09EF938702A465649304602F0CEFE47
:10074000C9F800402B4622469621404600F090F919
:1007500038702A465049304602F0C0FEDFF868A1E2
:1007600000238AF800304D49304602F0B7FE4C4D68
:100770009AF8003000932B4607229921404600F05A
:1007800001FA38702A464749304602F0A7FE4FF07A
:100790000A0BC9F800B09AF8003000932B465A466D
:1007A0009A21404600F0EEF938702A463E4930461C
:1007B00002F094FEC9F800409AF8003000932B46EE
:1007C00022469B21404600F0DDF938702A46374921
:1007D000304602F083FEC9F800B09AF8003000936A
:1007E0002B465A469C21404600F0CCF938702A46E8
:1007F0002F49304602F072FE0822C9F800209AF80C
:10080000003000932B469D21404600F0BBF9387024
:100810002A462849304602F061FEC9F800B09AF82D
:10082000003000932B465A469E21404600F0AAF91C
:1008300038702A462049304602F050FE304602F019
:1008400035FE1E4B188801F0CBFE05B0BDE8F08FD9
:100850001099FF1FD34D6210C88DFF1FAC8A000096
:100860004498FF1FE598FF1FB48A0000C88A000063
:10087000DC8A0000F48A00000C8B0000208B000052
:10088000308B0000348B0000448B0000588B00003C
:10089000648B0000748B0000848B0000988B000038
:1008A000C498FF1FAC8B0000BC8B0000C88B0000FD
:1008B000D88B0000E88B0000F88B0000C098FF1F69
:1008C0005498FF1F5898FF1FE498FF1F08B50A4867
:1008D0000A4B43600A4B1A7902739A6802611A7BC9
:1008E0000275084A82605A7B42751B698361064A19
:1008F000064903F039FF08BD5898FF1F0C8C000013
:10090000FC98FF1FFC8C0000FC87FF1F7104000097
:1009100010B586B00446407D01230493084B039331
:10092000002202920191009213460146A06900F054
:100930004BFCA369034AC3F8682206B010BD00BF90
:10094000A0860100400D03000078704730B583B0E9
:10095000044600F108050178284600F0A1FD627DFB
:10096000002300930123A169284601F07BF820B100
:10097000002384F82030FF2303E00346012284F89B
:100980002020184603B030BD30B4002950D00B46AB
:10099000D0E91445B5F1FF3F08BFB4F1FF3F04D0E3
:1009A000013445F10005C0E9144580F821300C2BD5
:1009B0003AD8DFE803F007151D21191D2125292D3F
:1009C0002D313500D0E91623B3F1FF3F08BFB2F156
:1009D000FF3F31D0013243F10003C0E916232BE081
:1009E000836A0133836227E0C36A0133C36223E071
:1009F000036B013303631FE0436B013343631BE06D
:100A0000836B0133836317E0C36B0133C36313E06C
:100A1000036C013303640FE0436A013343620BE06C
:100A2000C36C0133C36407E0436C0133436403E0E8
:100A3000002380F82130C5E730BC704710B5A1F124
:100A40005804E4B2072C04D90C21FFF79DFFFF20C6
:100A500010BD01701179017391680161117B0175FD
:100A6000517B41751269826103664360002010BDAD
:100A70002DE9F04782B090F82040002C71D01F463D
:100A800016460D46044600F108080178404600F07D
:100A900007FDA3681B68E9B240469847C0B2012829
:100AA00005D00B212046FFF76FFFFF205AE0627D43
:100AB0004FF00009CDF800904B46A169404600F088
:100AC000D1FF2A4629492A4802F008FD2278617D93
:100AD000CDF80490012300933346A06900F0D6FFBF
:100AE000864211D0224D2B685B6828222149284676
:100AF0009847284602F0DAFCA36993F85112204681
:100B0000FFF742FFFF202DE032461B49184802F054
:100B1000E5FCA069D0F83821D0F834319A421AD0D7
:100B20000026DFF85CA0DFF8489000F0F7FF0546EC
:100B30005FFA86F80090034642465146484602F066
:100B4000CDFC07F80850A069D0F83821D0F834312E
:100B500001369A42E9D10949054802F0BFFC00205C
:100B600000E0FD2002B0BDE8F08700BF148C00005B
:100B7000C88DFF1F208C00004C8C0000D48C00001E
:100B8000608C00002DE9F04782B09DF8287090F845
:100B90002040002C00F0AF801E460D46044600F1B8
:100BA00008080178404600F07BFC5FFA85F9A368ED
:100BB0001B68494640469847C0B2012805D00B2122
:100BC0002046FFF7E1FEFF20BDE0627D0023009399
:100BD000A169404600F046FF002F00F09F802A46A2
:100BE0005A495B4802F07AFC2278617D0023019328
:100BF00001230093A06900F049FF01287FD05549E7
:100C0000534802F06BFC00233370FF209BE02178F7
:100C1000404600F045FCA3681B684946404698479B
:100C2000C0B2012805D00B212046FFF7ADFEFF2002
:100C300089E0627D4FF00009CDF800904B46A16934
:100C4000404600F00FFF01352278617DCDF8049019
:100C5000012300932B46A06900F018FF85420BD0BA
:100C60003D493B4802F03AFCA36993F851122046F3
:100C7000FFF78AFEFF2066E0002F5CD0EAB237491A
:100C8000334802F02BFCA069D0F83831D0F8342179
:100C90009A422BD00025DFF8CC90DFF8B48000F02A
:100CA00011FF5FFA80FAAAF12002D2B25E2A94BF45
:100CB0005346202337B1009353462A4649464046BF
:100CC00002F00CFC15B1731903F801AC0135EDB25B
:100CD000A069D0F83821D0F834319A42DFD1022D02
:100CE00003D97319002203F8012C37B1184802F018
:100CF000DDFB002027E0FD2025E0002023E0A069A7
:100D000000F00CFF054602461549114802F0E6FBCB
:100D10007DE7A06900F002FF054678E72278617D53
:100D20000023019301230093A06900F0AFFE012886
:100D30007FF465AFEDE7A069D0F83831D0F8342101
:100D40009A42A7D1002002B0BDE8F087708C000065
:100D5000C88DFF1F888C0000A88C0000C08C00008C
:100D6000D88C0000608C00000369D3F83801D3F8F8
:100D70003431C01A704700BF704700BF0369D3F811
:100D80004422B2F5817F09D8D3F84422501CC3F81D
:100D90004402134483F83C1101207047012303717E
:100DA0000020704730B40469D4F84432B3F5817F31
:100DB0001FD8D4F84452C5F58175013504F59E73EA
:100DC000D4F84442954202D2012202712A4642B12D
:100DD000013C23448D1811F8014B03F8014FA9423F
:100DE000F9D10169D1F844321344C1F844321046B4
:100DF00002E001230371002030BC704738B504467F
:100E0000094B0360036993F84822022A09D1D3F8F9
:100E1000645235B1284602F02FFB0821284602F023
:100E2000BDFB204638BD00BFFC8C000010B4002282
:100E300002714FF47A7484600273054A0260417350
:100E40004FF41C74034A04FB0121016110BC70477C
:100E5000FC8C00000088FF1FC3681B7813F0200F74
:100E600040F0B58070B504460D4683688021197046
:100E7000C3681221197090F84932012B0BD022B9A6
:100E8000002380F84832012070BD531EDBB2012BD5
:100E900000F29F8000E0012225B94FF080714E4B97
:100EA000196005E0012D03D14FF000714A4B196024
:100EB000022A40F08880D4F864624EB9082002F01B
:100EC00069FB0646002102F079FAC4F8646286B133
:100ED0003379102B0DD1304602F0CEFA082130467E
:100EE00002F05CFB0023C4F86432012084F848025D
:100EF00070BD75BB3268938B9BB243F0080393833C
:100F0000D4F86422137910333448354941F823006A
:100F1000127953119B0003F1604303F5614302F022
:100F20001F02012101FA02F21A60D4F864321A6831
:100F3000938B9BB243F002039383D4F864321B7902
:100F400003F1804303F5043300221A7096221A70CD
:100F500031E0012D2FD1D4F864321A68938B9BB203
:100F600043F008039383D4F86422137910331D48A7
:100F70001B4941F82300127953119B0003F1604390
:100F800003F5614302F01F02012101FA02F21A6027
:100F9000D4F864321A68938B9BB243F002039383B4
:100FA000D4F864321B7903F1804303F50433002243
:100FB0001A7097221A70002384F85A32022384F898
:100FC0004832012070BD012084F8480270BD002025
:100FD0007047012070BD00BF00E100E0112100005A
:100FE0000082FF1F2121000070B4244CA4FB0135B6
:100FF000AD092B02A4FB0225AD09B3FBF5F5B5F550
:10100000A05F1FDB1E4A012352F8044FB5EB042FEB
:1010100003DB0133372BF7D100E0A3B15C1E184E80
:1010200056F82420A5EB0222002AB8BF524256F8F7
:101030002360A5EB0625002DB8BF6D42AA42D8BF9C
:10104000234600E0002342680E4CE45C14700C4A16
:1010500052F82330B1FBF3F3C0F84C320A4B9942FB
:1010600003D9836904221A7006E08369074AA2FB48
:101070000121C1F30751197070BC7047D34D621044
:10108000188D0000F48D0000FF6BDC02819F5E165E
:101090002DE9F0479DF820E0BEF1000F72D0C46842
:1010A000247814F0200F64D16CE0012A64D81C4627
:1010B000154689468046BEF1000F32D090F84B327B
:1010C000002B0CBF4FF0000A4FF0020A90F84A3292
:1010D000032B26D8DFE803F0020B141D5146112024
:1010E00001F09AF95146102001F096F919E05146A5
:1010F000122001F091F95146132001F08DF910E012
:1011000051461E2001F088F951461D2001F084F956
:1011100007E051461F2001F07FF951461A2001F0E7
:101120007BF9B9F1000F0DD115B1012D05D009E002
:10113000214B1E60043B1E6014E0204B1E60043BEC
:101140001E600FE0B9F1010F0CD1022D06D0032D66
:1011500008D11B4B1F6004331F6003E0194B1E6056
:10116000043B1E6088F84A5288F84B420120BDE8D3
:10117000F0870020BDE8F0870020BDE8F087002060
:10118000BDE8F087002B40F2032608BF4FF4197624
:1011900040F2036440F26467002B18BF2746002921
:1011A00083D0012902D00020BDE8F087941E012CD5
:1011B0007FF67DAFE3E700BF04A004400CA004402D
:1011C00000D004402CB0044070B582B004469DF8B5
:1011D00018600D4629B93048016841F040010160AE
:1011E00006E0012904D12C48016841F0800101602A
:1011F00084F84922002184F851123AB96369202207
:101200001A7022681170E269117011E06269002E93
:101210003AD130E05B00DBB21370E2697300DBB2FD
:1012200005E07600F6B21670E2695B00DBB213707F
:10123000002300939DF820309DF81C20294620466D
:10124000FFF726FF099A15492046FFF7CDFE9DF8C6
:10125000282029462046FFF7FFFD94F849321BB9A4
:10126000A36880221A7002E0A368C0221A700023CB
:10127000C4F86C320EE02021117022685B00DBB2F2
:101280001370E2690023D2E72821117022689E4280
:10129000C0D8C6E702B070BD34800440006CDC02E8
:1012A0002DE9F04F83B090F84A32032B62D8DFE883
:1012B00003F0400244064FF01208132540E04FF0BF
:1012C0001F081A253CE0404601F098F890B9013C0F
:1012D00014F0FF040ED05146284601F06BF8334657
:1012E000013BFDD14946284601F064F83346013BF5
:1012F000FDD1E8E797F84B3297F84A220021009198
:1013000059463846FFF7C4FEFB681B7813F07F0F81
:101310000BD0BB6800221A7050231A46013AFDD147
:10132000BA6880211170013BFDD1002387F851324A
:1013300020E04FF01108102502E04FF01E081D2597
:101340008B46074690F84B32002B0CBF0021022140
:10135000404601F061F80121284601F02BF80121F7
:10136000284601F059F80B244FF0000A50264FF0A0
:101370000109A8E703B0BDE8F08F00BF2DE9F041F7
:1013800004460E4615461F4601F006F90DB9D4F87D
:10139000685201F001F98046A3681A7812F0200F14
:1013A00002D0B4221A7039E02DB101F0F5F8C8EB83
:1013B000000085420AD9E3681B7813F0200FF3D1AF
:1013C000002384F84932A368B0221A70A3681B78FE
:1013D00013F0200F16D131462046FFF761FFD4F8F5
:1013E0006C32B3F1FF3F1CBF0133C4F86C32E368C9
:1013F0001B7813F0200F05D1002384F84932A3682D
:10140000B0221A70A3681B7803F0200303F0FF00DA
:1014100023B9042384F85132BDE8F08194F84832AE
:10142000013BDBB2012B31D800F048FF16B1012E91
:1014300003D005E0184B1B7804E0184B1B7801E043
:10144000154B1B78834224DB0F2803DC0120387006
:10145000BDE8F08116B1012E08D00FE0A0F1100315
:10146000DBB20D4A13700120BDE8F081A0F110033A
:10147000DBB20A4A13700120BDE8F081A0F110032D
:10148000DBB2054A13700120BDE8F0810120BDE800
:10149000F0810120BDE8F08118E400E019E400E0EB
:1014A0000369490083F83C1103690122C3F844220F
:1014B00000230371026982F8513270472DE9F0432D
:1014C00083B01E4600238DF80730D0F84432002B3D
:1014D00000F0B880044615460EB9D0F86862E3689B
:1014E00012221A700DF1070332462046FFF746FF1D
:1014F000002800F0A78094F848321BB19DF807201F
:10150000002A53D001F048F88146012384F8513273
:1015100084F8505204F23B1700254FF00208D4F82B
:1015200044329D4231D22EB101F036F8C9EB0000B1
:1015300086422AD9236917F8012F1A70E2681378B6
:1015400013F0020FFBD082F80080E2681378DBB260
:1015500013F0100F08D0072384F8513210231370B2
:10156000A36880221A706DE013F0010F0BD01DB933
:10157000052384F8513202E0062384F85132A3682F
:1015800080221A705EE00135C9E7D4F844329D42EA
:1015900034BF0423002384F8513294F85032012BD5
:1015A000A3680CBF8022B0221A704BE05A1ED2B240
:1015B000012A47D8012284F8512284F8505200228F
:1015C000C4F84022022B0DD1D4F84432042B11D898
:1015D00008E01A68926812B91A68012191601B68C4
:1015E00000229A61A368F0221A70236994F83C21C2
:1015F0001A7027E0012084F85A02D4F8642204F516
:101600009F71D4F84432033B1568296011688880C3
:1016100015680021E9711568A86010685D42C56011
:1016200010689BB2C3831268D382D4F864322269F3
:10163000186802611868818218688171B2F1804F60
:10164000CAD3C6E703B0BDE8F08300BF2DE9F0417F
:1016500082B09DF8205000248DF80740002B00F048
:101660006B81B3F5827F03D3082380F8513263E1A5
:10167000C0F854320023C0F83431C0F83831099B27
:1016800013B9D0F86832099316460446C36812228B
:101690001A700DF10703099AFFF770FE002800F099
:1016A0004B8194F8483223B19DF80720002A00F0BE
:1016B0008F8000F071FF0746022384F8513284F8CE
:1016C00050522269730043F00103DBB21370E268E9
:1016D000137813F0020FFBD002231370E268137823
:1016E000DBB213F0100F08D0072384F85132102317
:1016F0001370A36880221A701EE113F0010F06D048
:10170000052384F85132A36880221A7014E1032360
:1017100084F85132D4F85432012BA3680CBFA822AC
:10172000A0221A7023691B78022600254FF0A80812
:10173000D4F83821D4F854329A4280F0FD8094F8DD
:101740005132DBB2032B40F0F780E268137813F0DC
:10175000020FFBD01670099B43B100F01DFFC01BA8
:10176000099B83428CBF0020012000E02846D4F86A
:1017700038310233D4F85422934274D0002800F058
:10178000C38094F85932002B6DD0A5E0002875D0A5
:1017900094F85932002B40F0BF806FE0042384F8A6
:1017A000513294F85032012B06D00DE084F851529A
:1017B00094F85032012BBBD11023013BFDD1A3681B
:1017C00080221A700028B3D0012384F85932ADE783
:1017D0005A1ED2B2012A00F2AF80022284F85122AE
:1017E00084F85052934234D1D4F85432042B30D977
:1017F000012384F85A32D4F86432226919680A60E5
:101800001868002181801868C171B2F1804F02D33D
:101810001A68926812B91A68012191601B68002049
:10182000D860D4F8642204F13001D4F85432013B7A
:101830001568296115680121A9821568A8711068C9
:10184000816011685842886111689BB2CB8312682D
:10185000D382A368F0221A702269730043F0010357
:10186000DBB2137068E0A36883F80080D4F83831E5
:101870000133D4F8542293420BD287E723691A78B4
:10188000D4F83831591CC4F83811234483F8302077
:1018900098E784F85952A368B0221A7023691A781D
:1018A000D4F83831591CC4F83811234483F8302057
:1018B00000283FF47BAF71E784F85952A368B02247
:1018C0001A7023691A78D4F83831591CC4F83811C1
:1018D000234483F8302061E7D4F838310133D4F859
:1018E00054229342E8D251E784F85952A368B022B7
:1018F0001A7023691A78D4F83831591CC4F8381191
:10190000234483F8302051E7D4F838310133D4F838
:1019100054229342E8D239E784F85952A368B0229E
:101920001A7023691A78D4F83831591CC4F8381160
:10193000234483F8302031E702B0BDE8F08100BFD6
:10194000036993F85132043B042B0CD8DFE803F011
:101950000903050710000220704703207047042088
:101960007047042070470079003018BF012070478D
:101970000120704790F8513213F0FF0F1BD090F800
:101980005132DBB2052B18D090F85132DBB2062B66
:1019900015D090F85132DBB2072B12D090F85132AB
:1019A000DBB2042B0FD090F85102C0B2082814BF4C
:1019B000002001207047012070470120704701205E
:1019C0007047012070470120704700BF70B5044682
:1019D000154600F0E1FD0DB9D4F8685200F0DCFDC9
:1019E00006462046FFF7C6FF38B9002DF9D000F0B3
:1019F000D3FD801B8542F4D800E0ADB100F0CCFDF2
:101A0000801B854210D894F84832022B0CD194F8F0
:101A10005A3213F0FF0F07D02046FFF7ABFF002824
:101A2000FAD0042384F8513294F85132DBB2012BFE
:101A300009D094F85132DBB2022B04D094F8513221
:101A4000DBB2032B02D1042384F851324023013B43
:101A5000FDD194F8513213F0FF0F0CBF012000208C
:101A600070BD00BF70B506460C4615461A46049B6D
:101A700029462046FFF722FD049A29462046FFF713
:101A8000A5FF3046FFF75CFF70BD00BFA3B130B5C6
:101A900083B00D460446079901919DF818100091F6
:101AA0002946FFF7D3FD079A29462046FFF78EFF08
:101AB00020B1D4F8380102E000207047002003B0C4
:101AC00030BD00BFD0F83421D0F838319A4208D266
:101AD000D0F834315A1CC0F83421184490F8300042
:101AE00070474FF0FF30704708B50069FFF7EAFF15
:101AF00008BD00BFD0F83421D0F838319A423DBF3C
:101B0000D0F83431C01890F830004FF0FF307047F3
:101B100008B50069FFF7EEFF08BD00BFD0F834211B
:101B2000D0F838319A4208D2D0F834315A1CC0F873
:101B30003421184490F8300070470020704700BFEF
:101B400038B5C2681578EDB281680B78DBB213F056
:101B5000200F00F0C18113F0100F00F0058190F804
:101B60005A32DBB2022B04D090F85A32DBB2032B8C
:101B70004CD1D0F864120B689B8B03F080039BB2AE
:101B8000002B00F0848290F85A32DBB2022B40F036
:101B90007E8272E2137813F0800FFBD00A79B54B86
:101BA0001A70002380F85A32D0F84432013BC0F852
:101BB00040320269D0F84032034493F83C3113704C
:101BC00020E0AD4B1C680A7901239340234219D0D1
:101BD000AA4B1A70D0F864321A79A94B1A700023F4
:101BE00080F85A3215F0100F0CD0072380F85132CC
:101BF000C36812221A70836880221A700023C0F80A
:101C0000403238BDC36802221A7038BD90F8513294
:101C1000DBB2012B56D115F0100F0DD0002380F848
:101C20005A32072180F851121221117082688021E6
:101C30001170C0F8403238BD15F0010F0FD00023ED
:101C400080F85A32D0F840321BB9052380F851325F
:101C500002E0062380F8513280230B702EE0D0F88A
:101C600040320133C0F84032D0F8442293420AD3C4
:101C7000002380F8513290F85032012B0CBF8023A2
:101C8000B0230B701AE090F85A32DBB2012B0ED160
:101C9000022380F85A32F1230B70D0F864321A799B
:101CA000784B1A70036990F83D211A7006E00269BA
:101CB000D0F84032034493F83C311370C3680222D9
:101CC0001A7038BD90F85132DBB2022B36D115F0C4
:101CD000100F08D0072380F8513212231370836845
:101CE00080221A7038BD15F0010F05D0052380F849
:101CF000513280230B701DE090F85A32DBB2012B79
:101D00000CD1022380F85A32E1230B70D0F86432F0
:101D10001A795C4B1A7003691B780BE0032380F877
:101D20005132D0F85432012B0CBFE823E0230B7062
:101D300003691B78C36802221A7038BD90F85132CB
:101D4000DBB2042B0AD190F85032012B0CBF802358
:101D5000B0230B70C36802221A7038BD80230B7049
:101D6000C36802221A7038BD90F85A32DBB2022BD7
:101D700004D090F85A32DBB2032B55D1D0F864224C
:101D800013689B8B03F080039BB2002B00F09081C3
:101D900090F85A32DBB2022B40F08A817EE1127950
:101DA000344B1A70002380F85A3290F85132DBB26B
:101DB000042B1CBF002380F851328368B0221A70B4
:101DC000D0F85432013BC0F83831D0F838315A1CC1
:101DD000C0F8382102691278034483F8302090F863
:101DE0005032012B1CD11023013BFDD1836880228E
:101DF0001A7015E0204B19681279012393400B42A9
:101E00000ED01F4B1A70D0F864321A791B4B1A701F
:101E1000002380F85A3280F85132836880221A7089
:101E2000C36802221A7038BDD0F838310233D0F8B6
:101E30005422934200F0438190F85132DBB2042BDC
:101E400004D190F85932002B00F03981D0F83831A4
:101E50000133D0F85422934280F03F8190F8513200
:101E6000DBB2042B40F02E8190F85932002B40F069
:101E7000348127E11C8000402C8000401F800040FE
:101E80001E8000401B800040002380F85132836890
:101E9000B0221A70D0F838315A1CC0F838210269C3
:101EA0001278034483F8302090F85032012B05D18A
:101EB0001023013BFDD1836880221A7090F85132C3
:101EC000DBB2042B04D190F85932002B00F00F81C3
:101ED000C36802221A7038BD044615F0100F08D0EE
:101EE0001023137015F0400F06D1C36802221A7038
:101EF00038BD15F0400F60D094F85132DBB20A2B98
:101F000004D1D4F85C32002B40F0F58015F0040FBA
:101F10001ED0092384F851320023C4F84432A36848
:101F2000D0221A7023691B785B0884F85232D4F8E7
:101F3000603203B19847D4F844320BB984F83C318D
:101F4000236994F83C211A700123C4F8403230E030
:101F5000002384F8583294F84A32012B05D1032229
:101F60006849122000F098FA15E02BB90322654960
:101F7000112000F091FA0EE0022B05D103226249F4
:101F80001E2000F089FA06E0032B04D103225E49EB
:101F90001F2000F081FA0A2384F851320023C4F88C
:101FA0003831A368C0221A7023691B785B0884F853
:101FB0005232E36802221A7038BD13F0100F20D09D
:101FC00015F0010F15D1D0F84022D0F844329A42D2
:101FD00008D2D0F840325A1CC0F84022034493F88B
:101FE0003C2100E0002223691A70A368D0221A70F5
:101FF0003FE0C0230B7003691B78002380F8513247
:1020000037E090F85132DBB20A2B32D1002380F84E
:10201000583290F84A32012B05D103223949122057
:1020200000F03AFA15E02BB903223649112000F0EE
:1020300033FA0EE0022B05D1032233491E2000F0B3
:102040002BFA06E0032B04D103222F491F2000F0B6
:1020500023FA23691B78DBB2D4F83821B2F5817FEB
:1020600007D8D4F83821511CC4F83811224482F81A
:102070003030E36802221A7038BD0A79234B1A7097
:102080008368F0221A70032380F85A32BAE590F878
:102090005A32DBB2032B7FF494AD7BE512791B4BF4
:1020A0001A708368E8221A70032380F85A32B7E660
:1020B00090F85A32DBB2032B7FF49CAE6FE6E82334
:1020C0000B70C3E6D0F838315A1CC0F838210269C9
:1020D0001278034483F83020F0E6002380F8593268
:1020E00090F85132DBB2042B7FF4CEAECFE6012361
:1020F00080F85932ECE60022C4F83421D4F83801D3
:10210000984703E7D5210000E52100001F8000402B
:1021100008B500210148FFF713FD08BD0088FF1F27
:1021200008B501210148FFF70BFD08BD708AFF1FAC
:1021300010B50446C3681B7813F0200F24D1002388
:1021400080F8513290F84A32012B03D1122000F06E
:10215000D7F80FE01BB9112000F0D2F80AE0022BEB
:1021600003D11E2000F0CCF804E0032B02D11F2085
:1021700000F0C6F8D4F85C3253B30022C4F834211E
:10218000D4F83801984710BD90F858320133DBB2CB
:1021900080F85832012B03D890F84932012B17D020
:1021A00094F84A32012B03D1122000F0A9F810BD97
:1021B0001BB9112000F0A4F810BD022B03D11E2082
:1021C00000F09EF810BD032B02D11F2000F098F8FC
:1021D00010BD00BF08B500210148FFF7A9FF08BDE9
:1021E0000088FF1F08B501210148FFF7A1FF08BDC6
:1021F000708AFF1F70B50B4C00212046FEF716FEBB
:10220000094E0A4D32462946204602F0ADFA084CE6
:1022100001212046FEF70AFE32462946204602F0FA
:10222000A3FA70BDFC98FF1FFC87FF1FFD0D000087
:10223000E898FF1F08B50D4C236813F4802F01D0D8
:1022400000F026FB236813F4806F01D001F07EFBC1
:10225000236813F4006F01D001F01AFC236813F413
:10226000805FE9D001F0B6FCE6E700BF34800440AF
:1022700008B5FFF7DFFF00BF1022014B1A8070473F
:1022800000200540704700BF08B50B4B1B6880B1AC
:102290006A461818A2F58052904206D302F070FAEE
:1022A0000C2303604FF0FF3008BD034A106018464E
:1022B00008BD184608BD00BFE08CFF1FEFF3138375
:1022C000ABB9EFF31083ABB9EFF3058323B10F2B59
:1022D00005D9094A985C03E04FF4807000E00020C3
:1022E000EFF311833BB1984228BF184670474FF077
:1022F000FF30704700207047F0E300E0704700BFF8
:102300001D4B03EBC000436803F14042A2F592224B
:102310007C2A18D903F14042A2F594227C2A14D9D0
:1023200003F14042A2F596227C2A10D903F14042E3
:10233000A2F598227C2A0CD903F14042A2F59A22F8
:102340007C2A08D970470D4906E00D4904E00D4983
:1023500002E00D4900E00D4972B61A6822F087725A
:1023600022F4803242F080721A60C3F38403084A78
:1023700041F8232062B670472C8E0000E48CFF1FCA
:102380001C8DFF1F6C8DFF1F9C8DFF1FBC8DFF1FC1
:10239000FD220000044B00221A6004490A60044A2E
:1023A000106010221A60704714D0034004D003401C
:1023B00000D0034021281ED80F4B53F8303093F83B
:1023C000802212F0FF0F08D019B1012283F880207B
:1023D0007047012283F800217047074B03EBC000D0
:1023E000436821B11A6842F003021A6070471A6804
:1023F00022F002021A6070472C8E0000212806D8B5
:10240000044B53F8303093F80002C0B270470020FC
:10241000704700BF2C8E000021283AD81D4B03EBDB
:10242000C0035B68012919D0042925D0194A52F844
:102430003020002082F8800219B94FF480721A60AF
:102440007047022903D140F203121A607047032932
:102450000CBF4FF4817200221A6070470D4A52F887
:102460003020012182F880124FF4A2721A601A689B
:1024700022F020021A607047064A52F830200121EB
:1024800082F880124FF4A2721A601A6842F0200299
:102490001A6070472C8E000070B5212862D8042A7B
:1024A00060D8DFE802F0070905030B00092606E003
:1024B0000A2604E0082602E00C2600E00B260D4662
:1024C0003604294B03EBC0035C68236813F4E06F08
:1024D00002D10021FFF7A0FF244B254AC3F89C211D
:1024E000244AC3F8A021244AC3F8A421234AC3F8EC
:1024F000A821234AC3F8AC2104F14043A3F5922359
:102500007C2B18D904F14043A3F594237C2B14D9D8
:1025100004F14043A3F596237C2B10D904F14043EA
:10252000A3F598237C2B0CD904F14043A3F59A23FF
:102530007C2B08D970BD134906E0134904E0134908
:1025400002E0134900E0134972B6236823F47023B4
:1025500043F080722360C4F3840341F82350164390
:10256000266062B670BD00BF2C8E00000082FF1F87
:10257000D187FF1FA587FF1F7987FF1F4D87FF1F8B
:102580002187FF1FE48CFF1F1C8DFF1F6C8DFF1F19
:102590009C8DFF1FBC8DFF1F72B60D4B1B680D4A33
:1025A00010680D4A126862B612F0806F02D0322BAA
:1025B00088BF0130C3F53B437F33084AA2FB0323A6
:1025C0004FF47A7202FB00F000EB5310704700BF2B
:1025D00018E000E01099FF1F04ED00E0ABAAAAAAE2
:1025E00038B50546FFF7D8FF044625B938BD013D8B
:1025F0000AD004F57A74FFF7CFFF001BB0F57A7F9D
:10260000F5D200F0F5FFF6E738BD00BF10B5274B57
:102610004FF400021A604FF080721A604FF000729F
:102620001A604FF080621A604FF000621A6000205A
:102630001F4B18604BF6FF710433196028231D4AA5
:1026400013600832136008321360083213600832D6
:1026500013600832136008321360083213600922D5
:10266000154C226004F58054043420600434216049
:102670000434236008342360143C226004F5FE24F3
:10268000043420600D4801600D490B6008310B6077
:102690000C4B1A6001F096F83220FFF7A1FF00F012
:1026A0007FFC4FF4AF70FFF79BFF10BD08E100E027
:1026B000048003400C8003400080034008800B40EE
:1026C0000C800B4000800B4010B40E4B1B7843F085
:1026D00002040D4A02EBC40250600C4A1278002A30
:1026E00014BFC820882040EA0141074840F8341050
:1026F00082F0010205490A7083F00103014A137058
:1027000010BC70477C99FF1F0080FF1FF599FF1FC9
:10271000431E032B11D872B60B4A52F8230080B126
:1027200010B4416842F82310084931F81320048896
:10273000121B21F8132062B601E00020704710BC84
:10274000704762B6704700BF6C99FF1FE89BFF1F80
:10275000013803280DD872B6074B53F820302BB13F
:10276000002001305B68002BFBD100E0002062B646
:1027700070470020704700BFC099FF1F38B572B680
:102780001B4901231B4C11F8012B12F0080F24D018
:102790009A0054F832506DB9164B03EBC201083061
:1027A0004860154943F83210144A1378013B1370FE
:1027B00062B638BD42F0010254F832506DB90D4B8B
:1027C00003EBC201083048600D4943F832100B4A50
:1027D0001378013B137062B638BD0133052BD2D19B
:1027E00062B60022054B1A7000F040FC38BD00BFF5
:1027F000688F00000080FF1F88004000EA99FF1FDB
:10280000C8004000431E032B39D810B4400140F0EB
:1028100010001B4A104472B61A4AD25C032A0BD825
:10282000DFE802F01B040207052217E0083002224D
:1028300014E00830042211E0134A52F823201AB998
:10284000114A42F8231003E0104A52F82320516045
:102850000E4A42F8231062B610E00322094CE254FB
:1028600001F10803436000F00803002B14BFC823E4
:1028700088230A8843EA0243036062B610BC7047AB
:102880000080FF1F2899FF1FC099FF1FD099FF1FCD
:102890002DE9F04F85B0AB4CDFF8F8A2DFF8F8B2C5
:1028A0002578EDB215F0040F1DD0A74B1B7813F05F
:1028B000FF0F16D0A54B1A7802F0FF032AB1013B97
:1028C000DBB2A24A137003B900BEA14B1A7802F022
:1028D000FF0332B1013BDBB29D4A13700BB900F02C
:1028E00049FD0423237015F0080F00F0EF829AF8D9
:1028F0000030DBB21D0940F02A82964E9D0806EB9F
:10290000C5035A6856F83530C3F38303013B0C2BDB
:1029100000F21982DFE813F0D401D4011702170284
:102920001702170217021702F10117021702170206
:102930000D00894913680B6052684A60874A46F85F
:102940003520002286490A6082490A618A61012194
:10295000844A11709BB240F28162934218D8B3F559
:10296000D06F2ED2B3F5817F00F02D8106D8802B59
:1029700000F0D780822B00F0DA806FE140F2023263
:10298000934200F03581B3F5A06F00F06B8165E1F3
:1029900042F22102934200F08F8107D8B3F5086F0D
:1029A00000F0B980B3F5106F11D057E142F2212247
:1029B000934200F04A8142F22132934200F0528168
:1029C0004CE1694B5D68002D40F0278139E1624B95
:1029D0009A785D4B1A705F4D05F180062B6A13F0F3
:1029E000800F03D0686A083800F040FB0835B54214
:1029F000F4D15E4B0093DFF8A4815D4B0193DFF8C7
:102A0000A09100273E46009B0293186828B14568B4
:102A100000F02CFB2846002DF9D1029B1E60029786
:102A2000544B43F82760CDF80C80D8F8000028B14B
:102A3000456800F01BFB2846002DF9D1039B1E6062
:102A4000019B43F8046B01934B4B029A23F81260ED
:102A500099F80030023B032B09D8DFE803F00205A8
:102A6000020589F8006002E0012389F8003001378F
:102A7000009B0433009308F1040809F10109042FB5
:102A8000C1D100223D4B1A7001253D4EDFF8149153
:102A9000304F904619F8013B06F8043B13F0080F3D
:102AA0002BD000F0C3FA034640B1AA0007EB451152
:102AB00008334B60334947F8321006E0AB0047F863
:102AC00033802E4A13780133137000F0AFFA0246B8
:102AD00050B1AB0043F0010307EBC30108324A6079
:102AE0001E4A47F8332008E0AB0043F0010347F8E3
:102AF0003380224A137801331370AB0043F0020293
:102B000047F8328043F0030347F8338001351E4B0A
:102B10009E42BFD119E20C4B1B781C4D2B70012338
:102B2000A5E01A4D00232B706B7002239FE00A4B27
:102B30009B8803F07F03042B36DD0F22144B1A70A1
:102B4000BAE000BF80200740F499FF1F7D99FF1F66
:102B5000F699FF1F0080FF1FE099FF1FC80040008B
:102B60001499FF1FF599FF1F6C8F00006C99FF1FD0
:102B7000D099FF1F1899FF1FE89BFF1FEA99FF1FBD
:102B8000C420074088004000D4200740EC99FF1F74
:102B9000C02007409020074094200740C099FF1FA5
:102BA0002899FF1F688F00009D4A00211170517005
:102BB0009C4A12F8233013F0020F56D0984D01238F
:102BC0002B70022353E0984B9B8803F07F03042B68
:102BD00002DC954A52881AB10F22924B1A706BE0B0
:102BE000904911F8232022F0020201F82320ACE1E1
:102BF0008D4B9B8803F07F03042B02DC8A4A5288AA
:102C00001AB10F22874B1A7056E0864911F823201B
:102C100042F0020201F8232097E1834B59889888FB
:102C2000824B1A888A4208D15A88824205D1090A01
:102C300003290CBF2B781B8919E00C335D68002D2C
:102C4000EFD10F22774B1A7036E0794B1A68794B27
:102C50001A60754B9A78784B1A7076E10F22714B97
:102C60001A7029E000231D4601E002236C4D6E4AD4
:102C7000D6889E4228BF1E463746402E28BF402792
:102C800039462846FFF720FD3D44F61B03D13F2F70
:102C900000F2608110E03746402E28BF40273946B9
:102CA0002846FFF711FD3D44F61B01D13F2F03D904
:102CB000624B1D60624B1E8001238BF8003042E0A6
:102CC000594B198842F22103994212D15D4BD01D14
:102CD00012F8011B03F8011F8242F9D15A4B1B68FD
:102CE000862B02D10F22594B1A7000210846FFF79C
:102CF000EBFC574B46F8353025E0504B1F68BFB111
:102D0000DFF83C81B8F800502E46402D28BF402601
:102D100031463846FFF7D8FCAD1BADB2A8F80050DD
:102D20000DB9402E01D13E4400E00026434B1E6009
:102D30003D4B1B88B3F5A06F05D13B4B00225A7069
:102D40009B78444A137001238BF80030BBE0424E5D
:102D50009F0806EBC708D8F80420A2F10800013D3F
:102D6000EDB213F0080F47D000F080F93B4B53F859
:102D700025304BB35968394A42F8251003F108024F
:102D8000C8F80420364A525D032A12D8DFE802F060
:102D900002060A0E0321324A51550AE00221304A46
:102DA000515506E005212E4A515502E004212C4AD6
:102DB000515518F0080F14BFC82288221B8842EA18
:102DC000034346F837307EE0254B5B5D032B0BD881
:102DD000DFE803F0797902060022214B5A5572E0B0
:102DE00001221F4B5A556EE018F0080F14BF032242
:102DF00002221B4B5A5566E056F837301B0C22F85E
:102E0000083C002B57D0002322F8063C42F8043C33
:102E1000144B53F825303BBB124B43F8250027E0F9
:102E2000EC99FF1FC0200740E099FF1F6C8F000046
:102E30001099FF1FF89BFF1F049AFF1F1499FF1F93
:102E4000E899FF1FEF9BFF1FF09BFF1F7D99FF1F5E
:102E5000C8004000982007400080FF1FC099FF1F56
:102E60002899FF1F6C99FF1F3E4B53F8253058607F
:102E70003C4B43F825003C4931F8150032F8083C3A
:102E8000034421F8153000F0D1F8034658B1083357
:102E9000C8F8043018F0080F344A354B08BF134601
:102EA00046F837300FE0002346F83730314A1378C0
:102EB0000133137007E018F0080F2C4A2C4B08BFA1
:102EC000134646F8373008232370E9E415F0010F64
:102ED00021D0294902230B700022284B1A70284B5D
:102EE00022481860274C5C6098602748D8601A61B7
:102EF0009A610D20254B1870FF2325480370083870
:102F0000037018300270234A13709F22224B1A70EC
:102F100001230B7023E015F0800F05D00D221B4B11
:102F20001A708022403B1A7015F0020F06D0184A22
:102F30001378DBB213700222184B1A7015F0100FC1
:102F40000DD01022154B1A7009E000210846FFF73A
:102F5000BBFBB1E600212846FFF7B6FBACE605B0A7
:102F6000BDE8F08F1899FF1FE89BFF1F8800400005
:102F7000C8004000EA99FF1F942007407C99FF1F7A
:102F80000080FF1F2C99FF1F8099FF1FC020074062
:102F9000882007408C20074084200740802007407D
:102FA00008B500F089FE1C4800F1880103460022A4
:102FB0001A605A6008338B42FAD1184A136843F4F6
:102FC00080231360C0F30722154B1A70C0F3074229
:102FD00014331A70000E04331870FF23114A137053
:102FE00008321370783A1370012384321370002171
:102FF0006C3211707C3A137070220B4B1A704FF4C4
:103000000072A3F241331A60102203F1C04303F5AA
:10301000C8231A7008BD00BF0080FF1F3480044021
:103020009C2007408020074049E400E072B60D4B29
:103030001A68B2FA82F30B2B02D962B600207047ED
:103040004FF00041D94022EA010206490A6062B607
:10305000054903EBC303DB00C8180022CA504260D5
:10306000704700BFC48DFF1FBC83FF1F08B50F4B07
:10307000C31A0F4AA2FB03231B090B2B14D80D4ABA
:1030800012783AB10C4A127812F0FF0F02D0FFF713
:1030900075FB08BD72B609494FF0004222FA03F3EE
:1030A0000A681A430A6062B608BD00BFBC83FF1FEE
:1030B000398EE338EA99FF1FF499FF1FC48DFF1F73
:1030C00010B5134B1B6853B9124B1B7813F0FF0F4D
:1030D00018D00320FFF71CFB0D4B1860A8B10C4B58
:1030E000186843885A1C03441C7A03889A4206D302
:1030F000FFF7BCFF0022064B1A60204610BD42803D
:10310000204610BD4FF0FF3010BD4FF0FF3010BD16
:10311000009AFF1FF499FF1F08B50D4B1B6883B978
:103120000C4B1B7813F0FF0F08D00320FFF7F0FAC9
:10313000074B186028B94FF0FF3008BD4FF0FF3043
:1031400008BD034B1A6853881344187A08BD00BFA2
:10315000009AFF1FF499FF1F044B9888044B1B68CB
:103160001BB11A885B88D31A18447047E89BFF1F6D
:10317000009AFF1F0B4B1B7813F0FF0F11D010B5F7
:10318000094B186820B1FFF771FF0022064B1A6047
:1031900003242046FFF7BCFA10B1FFF767FFF8E7FA
:1031A00010BD7047F499FF1F009AFF1F2DE9F84FDB
:1031B0000122374B1A708A46002963D004460D4617
:1031C000344FDFF8DC809946334E3B6883BB98F878
:1031D000003013F0FF0F06D100222D4B1A704FF074
:1031E000FF30BDE8F88F47F2095B0420FFF7B0FA23
:1031F000072809D8012389F80030FFF717FF386046
:10320000B0B9002389F80030BBF1010B01D033784D
:1032100033B10122204B1A704FF0FF30BDE8F88F18
:1032200000F0E6F998F8003013F0FF0FDDD1D3E796
:103230000023337039684A88C2F14000A84228BF91
:10324000284601F1080302EB000EA1F802E02D1A56
:1032500048B1013A1344204414F8012B03F8012F1C
:10326000A042F9D104464B883F2B06D940230B805E
:103270000420FFF7C7FA00233B600522074B1A70B2
:10328000002DA2D10022024B1A705046BDE8F88FE3
:10329000F799FF1FF899FF1FFC99FF1FF699FF1F71
:1032A000F499FF1F00B583B002AB03F8010D0121B3
:1032B0001846FFF77BFF03B05DF804FB08B5012259
:1032C000104B1A70104B1B6893B9104B1B7813F0FE
:1032D000FF0F09D00420FFF73BFA072804D8FFF7B7
:1032E000A5FE094B186018B90020064B187008BDE0
:1032F000054B1B685888C0F140000022014B1A7032
:1033000008BD00BFF799FF1FF899FF1FF499FF1F31
:10331000144B1B7813F0FF0F23D010B50122124B72
:103320001A70124B196851B10024114B1C704B8854
:103330000B800420FFF766FA0C4B1C600DE0FFF7D2
:1033400075FE014630B10022094B1A700420FFF7C8
:1033500059FA02E00122064B1A700022024B1A7041
:1033600010BD7047F499FF1FF799FF1FF899FF1FD1
:10337000F699FF1F08B50E4B1B7813F0FF0F16D1FF
:103380000C4B196841B14B880B800420FFF73AFAC7
:103390000022084B1A6008BDFFF748FE014618B12D
:1033A0000420FFF72FFA08BD0122034B1A7008BD55
:1033B000F799FF1FF899FF1FF699FF1F10B472B617
:1033C00009B9026822B9294B1C882146002311E063
:1033D00003790F2BF7D825490988194111F0010FFE
:1033E000F1D003F1007303F59063B2EB431FEAD110
:1033F00062B639E041FA03F212F0010F2CD101223A
:103400009A401443194A148062B6DAB20271184C19
:10341000216841F002012160043C216841F0020171
:103420002160822413490C601A310A7004310A7039
:1034300006390A7007310A7003F1007303F59063CF
:103440005B01036000221A605A609A60DA601A61B8
:103450005A619A61DA6107E00133102BCAD162B672
:10346000002303601023037110BC7047069AFF1FEE
:10347000408004400080004003790F2B10D8094A97
:10348000137072B608490279012303FA02F20B881D
:1034900023EA02030B8062B610230371002303604A
:1034A000704700BF1A800040069AFF1F00B583B026
:1034B000054B1B88ADF8043003685B68022201A944
:1034C000984703B05DF804FB3C8F000010B514462C
:1034D00003685B689847204610BD00BF0EB400B576
:1034E00082B003AA52F8041B019201F0BDFF02B0A2
:1034F0005DF804EB03B07047F0B58BB022B90368F8
:103500001B68C9B2984731E01646012A14BF164617
:103510000A2621B930228DF82520212417E0212404
:103520003746B1FBF6F206FB1212D2B22546092A43
:1035300094BF30323732D2B20DF1280E754405F8FF
:10354000242CB1FBF7F111B1013CE4B2E9E733B14E
:10355000013CE4B20AAB23442D2203F8242C036877
:103560005B68C4F1220201A9214498470BB0F0BD69
:1035700008B50029BABF49422D2300230A22FFF7CC
:10358000BBFF08BD08B5FCF77BFFFDF70BF800F0AB
:103590002FF8FAE708B501F021F908BD08B501F0E8
:1035A00025F908BD08B5FFF7E5FD08BD08B5FFF72B
:1035B000B3FD08BD08B5FFF783FD08BD08B5FFF7EB
:1035C000CBFD08BD08B5FFF7A3FE08BD08B5FFF7A2
:1035D00075FE08BD08B508461146FFF7E7FD08BDB2
:1035E00008B50846FFF75EFE08BD00BF704700BF84
:1035F000234B1B78002B42D110B50122204B1A70AF
:10360000FFF7AAFD08B1FFF7F1FF00F08FF908B14D
:1036100000F03CFC00F02CFA08B100F039FC00F09E
:10362000C9FA08B100F036FC0022154B1A70EFF30E
:1036300005831BBBEFF3108372B6124A106810B9F2
:10364000E3B962B610BD104A127812B1B3B962B6CE
:1036500010BD01210C4A117042690A490A6012B179
:103660000021916102E00021084A116003B962B6AD
:103670000024447783689847034B1C7010BD704743
:10368000089AFF1FA89BFF1FAC9BFF1FA49BFF1F57
:10369000844641EA000313F003036DD1403A41D35D
:1036A00051F8043B40F8043B51F8043B40F8043B1C
:1036B00051F8043B40F8043B51F8043B40F8043B0C
:1036C00051F8043B40F8043B51F8043B40F8043BFC
:1036D00051F8043B40F8043B51F8043B40F8043BEC
:1036E00051F8043B40F8043B51F8043B40F8043BDC
:1036F00051F8043B40F8043B51F8043B40F8043BCC
:1037000051F8043B40F8043B51F8043B40F8043BBB
:1037100051F8043B40F8043B51F8043B40F8043BAB
:10372000403ABDD2303211D351F8043B40F8043B4B
:1037300051F8043B40F8043B51F8043B40F8043B8B
:1037400051F8043B40F8043B103AEDD20C3205D35B
:1037500051F8043B40F8043B043AF9D2043208D053
:10376000D2071CBF11F8013B00F8013B01D30B88C5
:1037700003806046704700BF082A13D38B078DD0A3
:1037800010F003038AD0C3F10403D21ADB071CBF75
:1037900011F8013B00F8013B80D331F8023B20F8DF
:1037A000023B7BE7043AD9D3013A11F8013B00F818
:1037B000013BF9D20B7803704B7843708B788370A0
:1037C0006046704760223A4B1A70E12201331A704A
:1037D000384B1B78082B10D1012203F1804303F5ED
:1037E0006C331A60132334490B6001F5FF2101F299
:1037F000FC710A60314A13601FE00A2B0DD1392297
:103800002F4B1A6013232C490B6001F5FF2101F2A5
:10381000FC710A60294A13600FE00C2B0CBF3522A3
:103820003D22274B1A60122323490B6001F5FF212B
:1038300001F2FC710A60214A1360224B1B7833B1FC
:103840000123214A136002F50022136005E00023E2
:103850001D4A136002F5002213601C4B1B78012BDC
:1038600006D880231A4A136002F5002213601AE07A
:10387000042B06D88423164A136002F50022136035
:1038800011E0082B06D88523114A136002F50022A7
:10389000136008E0102B94BF862387230C4A136023
:1038A00002F50022136001220A4B1A70704700BF14
:1038B00000400740D88DFF1F0CB003400CB00B40F8
:1038C00008B003400A9AFF1F20B00340D98DFF1FA4
:1038D00024B00340099AFF1FF0B44D1E2E46002469
:1038E000B0FBF2F302FB13032746092B94BF3033DE
:1038F0003733DBB206F8013FB0FBF2F008B1013418
:10390000EEE70B1900225A7094420BDD1A46002391
:1039100015F8010F14782C7002F801090133F81A18
:103920008342F5DB0846F0BC704700BF054B1878B2
:10393000C0B2054B1B78DBB2984238BF4030C01A8A
:10394000704700BF949AFF1F119AFF1F70B43E4B3F
:103950001B7913F0300F32D072B63B4B9B7D03F0D6
:10396000FF022BB9384BDA7940225A7462B626E04E
:1039700062B6364B1878C0B2354B1C78E4B2324D83
:10398000344EEB79D9B2431C402B28BF0023A3420D
:103990001CBFF1541846531E13F0FF02F1D1C3B2FD
:1039A0002A4A13702C4B1B684BB1A0422EBF001B40
:1039B000C4F1400400192728C4BF01221A70224B09
:1039C000DA78D2B212F0800F29D01B7913F0800F71
:1039D00025D0224B1C78E4B2214B1B78DBB29C42F1
:1039E00012D019481F4D01E0A3420CD00133402BE7
:1039F00028BF00230179E95CC9B2C171017DC9B258
:103A00000729F1D900E02346DBB215490B700E4BB4
:103A10001B7913F0800F02D07C210B4BD97012F070
:103A2000400F0ED0084B1B7913F0400F09D0002235
:103A30000D4B1A700D4B1B6803B11A703C22024BE0
:103A4000DA7070BC704700BF00A00640949AFF1F58
:103A5000119AFF1F549AFF1F0C9AFF1F9C9AFF1F79
:103A6000959AFF1F149AFF1F109AFF1F989AFF1F25
:103A7000054B1878C0B2054B1B78DBB2984238BFB3
:103A80004030C01A704700BF109BFF1FA59AFF1F50
:103A900070B43E4B1B7913F0300F32D072B63B4BF3
:103AA0009B7D03F0FF022BB9384BDA7940225A7420
:103AB00062B626E062B6364B1878C0B2354B1C7839
:103AC000E4B2324D344EEB79D9B2431C402B28BFBF
:103AD0000023A3421CBFF1541846531E13F0FF02EB
:103AE000F1D1C3B22A4A13702C4B1B684BB1A042D0
:103AF0002EBF001BC4F1400400192728C4BF0122B7
:103B00001A70224BDA78D2B212F0800F29D01B79CA
:103B100013F0800F25D0224B1C78E4B2214B1B7888
:103B2000DBB29C4212D019481F4D01E0A3420CD0D9
:103B30000133282B28BF00230179E95CC9B2C17188
:103B4000017DC9B20729F1D900E02346DBB215494E
:103B50000B700E4B1B7913F0800F02D07C210B4BA6
:103B6000D97012F0400F0ED0084B1B7913F0400FA4
:103B700009D000220D4B1A700D4B1B6803B11A704F
:103B80003C22024BDA7070BC704700BF00B00640A8
:103B9000109BFF1FA59AFF1FD09AFF1FA09AFF1F1F
:103BA000189BFF1F119BFF1FA89AFF1FA49AFF1FBE
:103BB000149BFF1F054B1878C0B2054B1B78DBB276
:103BC000984238BF4030C01A704700BF8C9BFF1F1F
:103BD000219BFF1F2E4B1B7913F0200F22D02C4B63
:103BE000DB79D9B22B4B1B780133402B28BF002344
:103BF000294A1278D2B2934204D0284AD154DAB278
:103C000024490A70264A116861B1264A1278D2B254
:103C100093422EBF9B1AC2F140029B18272BC4BFB0
:103C200001230B701A4BDB78DBB213F0800F1CD032
:103C3000174A127912F0800F17D01B4A1178C9B2B7
:103C4000184A1278D2B2914203D16C21104AD17035
:103C50000BE00132282A28BF00221449895CC9B22E
:103C60000B48C171D2B20F490A7013F0400F0ED049
:103C7000074B1B7913F0400F09D000220C4B1A7030
:103C80000C4B1B6803B11A702C22014BDA70704781
:103C900000C006408C9BFF1F219BFF1F4C9BFF1FFA
:103CA0001C9BFF1F8D9BFF1F949BFF1F249BFF1FCF
:103CB000209BFF1F909BFF1F72B61D4B70221A7036
:103CC00041211C4A11700F21013A117080221A7093
:103CD0001A46137813F0800FFBD000B585B0164B51
:103CE000186862B6154B98429CBF00EB80004000FC
:103CF0000A2201A9FFF7F0FD9DF804307BB908E026
:103D000010F8012F32B121F8022F01330A2BF7D11D
:103D100000E0002301335B00094A137005E0084905
:103D200021F8023F01A80123EAE705B05DF804FB92
:103D30000000024007000240080002407F96980001
:103D4000688EFF1F70B5EFF3108272B60C4B1868C7
:103D500098B11C4600250B4E436923600BB19D6151
:103D600000E0356002B962B6457783689847EFF3A3
:103D7000108272B620680028EED102B962B670BD1A
:103D8000989BFF1F9C9BFF1F08B5FFF7DBFF08BD3B
:103D90001C4B1B6823B98360C3601A4B18602DE06D
:103DA00001681A6891420AD283600022C260D8601A
:103DB0001A680168521A1A60124B18601EE09A685D
:103DC000A2B102681968521A02609B6819688A4297
:103DD000F5D28360DA68C260D860C26890601A6801
:103DE0000168521A1A600223037570470268196845
:103DF000521A026000228260C36098600223037539
:103E0000704700BFA09BFF1F70B5194B1C68ECB139
:103E1000236823B90025164E04E0236813B1013B43
:103E2000236013E0A36803B1DD603360257520696A
:103E300003681B6822462946984763681BB12360C4
:103E40002046FFF7A5FF3468002CE6D1EFF310837E
:103E500072B6084A10680021116003B962B628B131
:103E60008468FFF795FF2046002CF9D170BD00BF94
:103E7000A09BFF1FB09BFF1F08B5034A13680133C7
:103E80001360FFF7C1FF08BD1099FF1F704700BF07
:103E9000704700BF704700BF81F0004102E000BFE3
:103EA00083F0004330B54FEA41044FEA430594EAFA
:103EB000050F08BF90EA020F1FBF54EA000C55EA35
:103EC000020C7FEA645C7FEA655C00F0E2804FEA06
:103ED0005454D4EB5555B8BF6D420CDD2C4480EAE8
:103EE000020281EA030382EA000083EA010180EA18
:103EF000020281EA0303362D88BF30BD11F0004F66
:103F00004FEA01314FF4801C4CEA113102D040429B
:103F100061EB410113F0004F4FEA03334CEA1333D6
:103F200002D0524263EB430394EA050F00F0A780EE
:103F3000A4F10104D5F1200E0DDB02FA0EFC22FAE9
:103F400005F2801841F1000103FA0EF2801843FADD
:103F500005F359410EE0A5F120050EF1200E012ACE
:103F600003FA0EFC28BF4CF0020C43FA05F3C0180C
:103F700051EBE37101F0004507D54FF0000EDCF185
:103F8000000C7EEB00006EEB0101B1F5801F1BD32E
:103F9000B1F5001F0CD349085FEA30004FEA3C0C32
:103FA00004F101044FEA445212F5800F80F09A8028
:103FB000BCF1004F08BF5FEA500C50F1000041EB2C
:103FC000045141EA050130BD5FEA4C0C404141EB30
:103FD000010111F4801FA4F10104E9D191F0000F57
:103FE00004BF01460020B1FA81F308BF2033A3F1DA
:103FF0000B03B3F120020CDA0C3208DD02F1140CD1
:10400000C2F10C0201FA0CF021FA02F10CE002F10B
:104010001402D8BFC2F1200C01FA02F120FA0CFC04
:10402000DCBF41EA0C019040E41AA2BF01EB04514D
:10403000294330BD6FEA04041F3C1CDA0C340EDC4B
:1040400004F11404C4F1200220FA04F001FA02F38E
:1040500040EA030021FA04F345EA030130BDC4F14C
:104060000C04C4F1200220FA02F001FA04F340EA41
:104070000300294630BD21FA04F0294630BD94F0F2
:10408000000F83F4801306BF81F480110134013DD9
:104090004EE77FEA645C18BF7FEA655C29D094EA4A
:1040A000050F08BF90EA020F05D054EA000C04BFC8
:1040B0001946104630BD91EA030F1EBF00210020B3
:1040C00030BD5FEA545C05D14000494128BF41F052
:1040D000004130BD14F580043CBF01F5801130BDB6
:1040E00001F0004545F0FE4141F470014FF0000041
:1040F00030BD7FEA645C1ABF194610467FEA655CF2
:104100001CBF0B46024650EA013406BF52EA033593
:1041100091EA030F41F4002130BD00BF90F0000F81
:1041200004BF0021704730B54FF4806404F13204BD
:104130004FF000054FF0000150E700BF90F0000F76
:1041400004BF0021704730B54FF4806404F132049D
:1041500010F0004548BF40424FF000013EE700BF6D
:1041600042004FEAE2014FEA31014FEA02701FBFFD
:1041700012F07F4393F07F4F81F06051704792F0CF
:10418000000F14BF93F07F4F704730B54FF4607449
:1041900001F0004521F0004120E700BF50EA010294
:1041A00008BF704730B54FF000050AE050EA010241
:1041B00008BF704730B511F0004502D5404261EBB1
:1041C00041014FF4806404F132045FEA915C3FF4F2
:1041D000DCAE4FF003025FEADC0C18BF03325FEA8B
:1041E000DC0C18BF033202EBDC02C2F1200300FA40
:1041F00003FC20FA02F001FA03FE40EA0E0021FA65
:1042000002F11444C1E600BF70B54FF0FF0C4CF44E
:10421000E06C1CEA11541DBF1CEA135594EA0C0F04
:1042200095EA0C0F00F0DEF82C4481EA030621EA3F
:104230004C5123EA4C5350EA013518BF52EA03357A
:1042400041F4801143F4801338D0A0FB02CE4FF02C
:104250000005E1FB02E506F00042E0FB03E54FF05C
:104260000006E1FB03569CF0000F18BF4EF0010E54
:10427000A4F1FF04B6F5007F64F5407404D25FEA50
:104280004E0E6D4146EB060642EAC62141EA555103
:104290004FEAC52040EA5E504FEACE2EB4F1FD0C45
:1042A00088BFBCF5E06F1ED8BEF1004F08BF5FEAC3
:1042B000500E50F1000041EB045170BD06F0004675
:1042C00046EA010140EA020081EA0301B4EB5C0422
:1042D000C2BFD4EB0C0541EA045170BD41F480111A
:1042E0004FF0000E013C00F3AB8014F1360FDEBF3F
:1042F000002001F0004170BDC4F10004203C35DA1B
:104300000C341BDC04F11404C4F1200500FA05F39D
:1043100020FA04F001FA05F240EA020001F000423E
:1043200021F0004110EBD37021FA04F642EB0601B4
:104330005EEA430E08BF20EAD37070BDC4F10C04DE
:10434000C4F1200500FA04F320FA05F001FA04F2A2
:1043500040EA020001F0004110EBD37041F100018E
:104360005EEA430E08BF20EAD37070BDC4F1200599
:1043700000FA05F24EEA020E20FA04F301FA05F201
:1043800043EA020321FA04F001F0004121FA04F2A9
:1043900020EA020000EBD3705EEA430E08BF20EA79
:1043A000D37070BD94F0000F0FD101F000464000B3
:1043B00041EB010111F4801F08BF013CF7D041EA35
:1043C000060195F0000F18BF704703F00046520039
:1043D00043EB030313F4801F08BF013DF7D043EA0A
:1043E0000603704794EA0C0F0CEA135518BF95EAC0
:1043F0000C0F0CD050EA410618BF52EA4306D1D147
:1044000081EA030101F000414FF0000070BD50EA65
:10441000410606BF1046194652EA430619D094EAEF
:104420000C0F02D150EA013613D195EA0C0F05D1D9
:1044300052EA03361CBF104619460AD181EA03012D
:1044400001F0004141F0FE4141F470014FF00000E5
:1044500070BD41F0FE4141F4780170BD70B54FF080
:10446000FF0C4CF4E06C1CEA11541DBF1CEA135500
:1044700094EA0C0F95EA0C0F00F0A7F8A4EB0504E2
:1044800081EA030E52EA03354FEA013100F08880D9
:104490004FEA03334FF0805545EA131343EA1263A2
:1044A0004FEA022245EA111545EA10654FEA002657
:1044B0000EF000419D4208BF964244F1FD0404F510
:1044C000407402D25B084FEA3202B61A65EB03056C
:1044D0005B084FEA32024FF480104FF4002CB6EB29
:1044E000020E75EB030E22BFB61A754640EA0C00A9
:1044F0005B084FEA3202B6EB020E75EB030E22BFE9
:10450000B61A754640EA5C005B084FEA3202B6EB29
:10451000020E75EB030E22BFB61A754640EA9C00E8
:104520005B084FEA3202B6EB020E75EB030E22BFB8
:10453000B61A754640EADC0055EA060E18D04FEA76
:10454000051545EA16754FEA06164FEAC30343EA16
:1045500052734FEAC2025FEA1C1CC0D111F4801FE3
:104560000BD141EA00014FF000004FF0004CB6E7DC
:1045700011F4801F04BF01430020B4F1FD0C88BF7B
:10458000BCF5E06F3FF6AFAEB5EB030C04BFB6EB86
:10459000020C5FEA500C50F1000041EB045170BD79
:1045A0000EF0004E4EEA113114EB5C04C2BFD4EBA6
:1045B0000C0541EA045170BD41F480114FF0000E2A
:1045C000013C90E645EA060E8DE60CEA135594EAA6
:1045D0000C0F08BF95EA0C0F3FF43BAF94EA0C0FA9
:1045E0000AD150EA01347FF434AF95EA0C0F7FF41E
:1045F00025AF104619462CE795EA0C0F06D152EA72
:1046000003353FF4FDAE1046194622E750EA410655
:1046100018BF52EA43067FF4C5AE50EA41047FF466
:104620000DAF52EA43057FF4EBAE12E74FF0FF3CCB
:1046300006E000BF4FF0010C02E000BF4FF0010C9C
:104640004DF804CD4FEA410C7FEA6C5C4FEA430C15
:1046500018BF7FEA6C5C1BD001B050EA410C0CBF64
:1046600052EA430C91EA030F02BF90EA020F0020C6
:10467000704710F1000F91EA030F58BF994208BF2D
:1046800090422CBFD8176FEAE37040F001007047EA
:104690004FEA410C7FEA6C5C02D150EA013C07D141
:1046A0004FEA430C7FEA6C5CD6D152EA033CD3D08C
:1046B0005DF8040B704700BF8446104662468C4686
:1046C0001946634600E000BF01B5FFF7B7FF0028B9
:1046D00048BF10F1000F01BD4DF808EDFFF7F4FFE2
:1046E0000CBF012000205DF808FB00BF4DF808ED6D
:1046F000FFF7EAFF34BF012000205DF808FB00BF90
:104700004DF808EDFFF7E0FF94BF012000205DF8B1
:1047100008FB00BF4DF808EDFFF7CEFF94BF012066
:1047200000205DF808FB00BF4DF808EDFFF7C4FF5F
:1047300034BF012000205DF808FB00BF4FEA410CA8
:104740007FEA6C5C02D150EA013C0AD14FEA430C8B
:104750007FEA6C5C02D152EA033C02D14FF00000C8
:1047600070474FF0010070470B460146184600F0B5
:1047700001B800BF13460A460146022000F0A4BE5D
:10478000014B1868704700BFA892FF1F70B50F4E0D
:104790000F4D761BB61018BF002405D0013455F814
:1047A000043B9847A642F9D10A4E0B4D761B04F004
:1047B0004DFDB61018BF002406D0013455F8043B57
:1047C0009847A642F9D170BD70BD00BF5892000055
:1047D000589200006892000058920000024B014677
:1047E000186800F00BB800BFA892FF1F024B0146EB
:1047F000186800F02DBF00BFA892FF1F2DE9F04FF1
:1048000001F10B05162D83B0064640F29F8035F06E
:10481000070500F1BF80A94200F2BC8000F06EFBEA
:10482000B5F5FC7FC0F09C826B0A00F0BA80042BC7
:1048300000F28381A80900F1390E4FEA4E033830A7
:10484000C44F07EB8303A3F108015C68A14207D1C1
:10485000ACE0002A80F2AC80E468A14200F0A680BF
:10486000636823F003035A1B0F2AF2DDB9493C6940
:1048700001F1080E744500F0B381636823F003036F
:104880005A1B0F2A00F39981002AC1F814E0C1F8DD
:1048900010E080F29E80B3F5007F80F06781DB0836
:1048A00003F1010C01229B1002FA03F34A6851F84C
:1048B0003C80C4F8088001EBCC091A43A9F1080335
:1048C000E3604A6041F83C40C8F80C408310012482
:1048D0009C40944200F28A80144206D120F00300EA
:1048E0006400144200F10400FAD007EBC009CC4682
:1048F0008046DCF80C108C4507D173E1002A80F269
:104900008181C9688C4500F06D814B6823F00303F9
:104910005A1B0F2AF2DD0C46D1F80CC054F8088F50
:104920004B1945F001054D6042F00101C8F80CC07B
:104930003046CCF808807B613B61C3F80CE0C3F8DB
:1049400008E059609A5000F0DBFA1FE0102921D8E6
:1049500000F0D4FA1025062302207E4F07EB8303D4
:10496000A3F108025C68944200F045816368E16845
:10497000A56823F00303234430465A68E96042F0F7
:1049800001028D605A6000F0BBFA0834204603B083
:10499000BDE8F08F00240C232046336003B0BDE84F
:1049A000F08F80234FF0400E3F2049E770465DE7CF
:1049B0002344E1685A68A56842F00102E960304684
:1049C0008D605A6000F09CFA0834204603B0BDE8C0
:1049D000F08F234430465A6842F001025A6000F0DA
:1049E0008FFA0834204603B0BDE8F08FBC686368D6
:1049F00023F00308A84504D3C5EB08030F2B00F3ED
:104A00008C80554BDFF860911A68D9F8003001337B
:104A10002A4404EB080A00F0608102F580520F324C
:104A200022F47F6222F00F0211463046019200F01C
:104A300059FCB0F1FF3F8346019A00F0588182454E
:104A400000F2FC80454B1968DA451144196000F00A
:104A50005381D9F80000DFF810E101301BBFCAEB29
:104A60000B0A5144CEF800B019601BF0070100F0AA
:104A70001781C1F10800C1F58051834408315A44BF
:104A8000C2F30B02C2EB010949463046019300F024
:104A900029FC431C019B00F03F81CBEB00024A4400
:104AA00042F001021968C7F808B04944BC42CBF88B
:104AB00004201960DFF8A49016D0B8F10F0F40F26F
:104AC000FD806268A8F10C0323F00703E01802F0F0
:104AD00001024FF0050E1A430F2B6260C0F804E08C
:104AE000C0F808E000F21C811D4BBC681A689142B6
:104AF00088BF19601B4B1A689142626888BF1960B1
:104B000022F003029542A2EB050301D80F2B04DC2F
:104B1000304600F0F5F9002438E7621943F001034C
:104B200045F0010565603046BA60536000F0E8F971
:104B30000834204603B0BDE8F08F142B71D9542BF4
:104B400000F2A480280B00F16F0E4FEA4E036E3086
:104B500076E600BF1894FF1FBC9BFF1FC09BFF1F82
:104B6000B89BFF1FB49BFF1F2498FF1F5A0A042AFB
:104B70005ED9142A00F2B38002F15C0149005B3275
:104B800007EB810C57F82110DFF8DC81ACF1080C41
:104B90008C4500F088804A6822F00302934202D2DA
:104BA00089688C45F7D1D1F80CC07A68C4F80CC07C
:104BB000A160CCF80840CC6088E6631942F0010798
:104BC00045F00105656030464B610B61C3F80CE0B0
:104BD000C3F808E05F609A50083400F091F9D5E618
:104BE0004A6873E608F1010818F0030F0CF1080C8D
:104BF0007FF47FAE30E0DC68A34208BF02303FF4B0
:104C000035AEB3E60B440C465A68C96854F8085FE1
:104C100042F001025A603046E9608D6000F070F9A0
:104C2000B4E603F15C0E03F15B004FEA4E0307E6C6
:104C30009A0902F1390149003832A1E7BC424A4BD6
:104C40003FF400AF9C68626822F003025AE759F80B
:104C50000839994540F0828010F0030F00F1FF30D1
:104C6000F5D17B6823EA04037B6064009C423FF635
:104C7000BDAE002C3FF4BAAE1C4240467FF435AEC8
:104C800064001C4200F10400FAD02EE6B3F5AA7FBE
:104C900018D8E80B00F1780E4FEA4E037730CFE5D5
:104CA0004FF48051EBE60121D8F80430921001FA5C
:104CB00002F21A43C8F80420614677E70123CBF8D3
:104CC000043025E740F25452934220D8A80C00F15A
:104CD0007D0E4FEA4E037C30B2E51032A4E6542A32
:104CE00026D81A0B02F16F0149006E3248E7BC6802
:104CF000626822F0030205E7CAF30B0000287FF484
:104D0000A8AE4244BB6842F001025A60ECE6FE23C2
:104D10004FF07F0E7E2093E501224FF00009C1E69F
:104D200004F10801304600F093FCD9F80010DBE6EE
:104D3000B2F5AA7F05D8DA0B02F178014900773283
:104D40001EE740F254518A4205D89A0C02F17D01C7
:104D500049007C3214E7FE217E2211E77B6884E75C
:104D6000E808431C5B00F8E51894FF1F82B049B1C6
:104D70005AB16BB113780B601278101C18BF012068
:104D800002B0704701A9002AF3D1104602B0704763
:104D90006FF00100F4E700BF8842F0B50DD98B1821
:104DA00098420AD28118002A51D09A1A13F8014D5C
:104DB00001F8014D9342F9D1F0BD0F2A48D941EADB
:104DC00000039B0746D100F1100401F110031546C2
:104DD00053F8106C44F8106C53F80C6C44F80C6CDD
:104DE00053F8086C44F8086C103D53F8046C44F810
:104DF000046C0F2D03F1100304F11004E8D8A2F1A4
:104E0000100323F00F0302F00F0E1033BEF1030F57
:104E10001944034421D91E1F0D467446043C55F81D
:104E2000047B46F8047F032CF8D8AEF1040424F088
:104E3000030404342344214402F0030262B1013B21
:104E40000A4411F8014B03F8014F8A42F9D1F0BD31
:104E50000346F3E70346F2E7F0BD7246EEE700BF14
:104E600070B4840746D0541E002A41D0CDB2034608
:104E700002E0621EE4B3144603F8015B9A07F8D11E
:104E8000032C2ED9CDB245EA05250F2C45EA054560
:104E900019D903F110022646103E0F2E42F8105C7D
:104EA00042F80C5C42F8085C42F8045C02F1100223
:104EB000F2D8A4F1100222F00F0204F00F04103215
:104EC000032C13440DD91E462246043A032A46F801
:104ED000045BFAD8221F22F003020432134404F0C8
:104EE00003042CB1C9B21C4403F8011BA342FBD13B
:104EF00070BC704714460346C2E700BF704700BF4E
:104F0000704700BF2DE9F04F174683B0002900F02D
:104F1000C1800E46814607F10B05FFF7EFFF56F8FB
:104F200004EC162D2EF00304A6F1080840D8102238
:104F30001546AF4241D8944275DAC94B996808EBDF
:104F400004008842416800F0D98021F00103034445
:104F50005B68DB077DD51EF0010F35D0394648462A
:104F6000FFF74CFC0746E0B156F8043C23F0010380
:104F70004344A0F108029A4200F04481221F242AEF
:104F800000F23181132A00F204810346324611688F
:104F900019605168596092689A603146484600F03D
:104FA00057FB4846FFF7ACFF384603B0BDE8F08F2B
:104FB00025F00705002D2A46BBDA0C230020C9F88E
:104FC000003003B0BDE8F08F56F8083CC3EB080A88
:104FD000DAF8043023F0030C04EB0C039342BDDB3E
:104FE0005746DAF80C1057F8080F221F242AC16020
:104FF000886000F21781132A40F212813168CAF8E2
:1050000008107168CAF80C101B2A00F22B810836B0
:105010000AF110023168116071685160B1689160E5
:105020003E461C46D046631B0F2B1DD8D8F80430D3
:1050300003F0010323434444C8F80430636843F099
:10504000010363604846FFF75BFF304603B0BDE8ED
:10505000F08F21F003012144914221DBC368826873
:105060000C46D3609A60DEE7D8F8042008EB05010F
:1050700002F00102154343F001020B44C8F804504A
:105080004A605A6842F0010208315A60484600F00E
:10509000DFFAD7E7114603B0BDE8F04FFFF7AEBB2C
:1050A0001EF0010F7FF45AAF56F8083CC3EB080A14
:1050B000DAF8043023F0030C01EB0C0E96458BDB81
:1050C000C36882685746D3609A6057F8081FDAF8B9
:1050D0000C30CB60221F242A996000F29980132A99
:1050E00062D93368CAF808307368CAF80C301B2AD2
:1050F00000F2A08008360AF1100356E021F0030BFD
:10510000A34405F11000834559DA1EF0010F7FF426
:1051100025AF56F8081CC1EB080ADAF8041021F094
:10512000030CE34458453FF757AF5746DAF80C10E5
:1051300057F8080F221F242AC160886000F2B4804B
:10514000132A40F2A5803168CAF808107168CAF8BD
:105150000C101B2A00F2AF8008360AF110023168E9
:10516000116071685160B16891600AEB0501C5EB8F
:105170000B0242F0010299604A60DAF8043003F051
:1051800001031D434846CAF80450FFF7B9FE3846EC
:105190005CE733680360736843601B2A27D800F11B
:1051A000080306F10802F2E63B4632681A607268AC
:1051B0005A60B2689A603E467446D04633E708EBC0
:1051C0000501C5EB0B0B4BF0010299604A6056F8E4
:1051D000043C03F001031D43484646F8045CFFF716
:1051E0008FFE304632E73146FFF7D6FDD5E6B3688D
:1051F0008360F368C360242A28D000F1100306F10D
:105200001002C4E650F8043C23F003031C440AE7F0
:10521000314638467446D046FFF7BEFD3E4602E7AB
:105220003A46F7E6314638461C46D046FFF7B4FD0D
:105230003E46F8E6B368CAF81030F368CAF814308E
:10524000242A1BD010360AF11803AEE73369036134
:105250007369436106F1180200F1180397E600BF75
:105260001894FF1FB168CAF81010F168CAF814103A
:10527000242A0FD010360AF11802CBE63369CAF897
:1052800018307369CAF81C3018360AF120038CE70D
:105290003A4664E73269CAF818207269CAF81C20D5
:1052A00018360AF12002B5E6314638460193FFF779
:1052B00073FD019B59E7B168CAF81010F168CAF88C
:1052C0001410242A03D010360AF1180247E7326975
:1052D000CAF818207269CAF81C2018360AF1200290
:1052E0003DE700BF38B5074C00230546084623605C
:1052F000FCF7CAFF431C00D038BD2368002BFBD04D
:105300002B6038BDFC9BFF1FFFFFFFFFFFFFFFFF70
:10531000FFFFFFFFFFFFFFFFFFFFFFFFFFFFFFFF9D
:10532000FFFFFFFFFFFFFFFFFFFFFFFFFFFFFFFF8D
:10533000FFFFFFFFFFFFFFFFFFFFFFFFFFFFFFFF7D
:1053400090F800F06DE9024520F007016FF0000CC5
:1053500010F0070491F820F040F049804FF000046D
:105360006FF00700D1E9002391F840F000F1080048
:1053700082FA4CF2A4FA8CF283FA4CF3A2FA8CF380
:105380004BBBD1E9022382FA4CF200F10800A4FAE7
:105390008CF283FA4CF3A2FA8CF3E3B9D1E904233B
:1053A00082FA4CF200F10800A4FA8CF283FA4CF372
:1053B000A2FA8CF37BB9D1E9062301F1200182FA2C
:1053C0004CF200F10800A4FA8CF283FA4CF3A2FA32
:1053D0008CF3002BC6D0002A04BF04301A4612BA40
:1053E000B2FA82F2FDE8024500EBD2007047D1E943
:1053F000002304F00305C4F100004FEAC50514F0D2
:10540000040F91F840F00CFA05F562EA05021CBFA2
:1054100063EA050362464FF00004A9E7F0B5ADF575
:10542000057D04AD00930F4613464FF4007403AAA4
:1054300029460394064600F061FD88B10446024601
:105440003946039B304600F029F8AC42039004D063
:105450003046214600F0FCF803980DF5057DF0BDBF
:105460004FF0FF30F9E700BF10B4044C13460A4672
:105470000146206810BCFFF7D1BF00BFA892FF1FF4
:1054800021B1FF2A04D80A700120704708467047EE
:105490008A2303604FF0FF30704700BF70B50D46A0
:1054A000084C114606461A46284600232360FEF79C
:1054B0000DF8431C00D070BD2368002BFBD0336077
:1054C00070BD00BFFC9BFF1F2DE9F047254C2568F0
:1054D000D5F848410646884692469946C4B3606866
:1054E0001F2817DC431C76B104EB80050122C5F8A8
:1054F00088A0D4F8881182401143022EC4F8881184
:10550000C5F808911ED00230636044F82080002066
:10551000BDE8F087144B03B34FF4C870FFF75EF992
:105520000446D0B1D5F84831002780E88800C5F896
:10553000484138460123C4F88871C4F88C71002EA4
:10554000E1D0D1E7D4F88C110A43C4F88C21DAE712
:1055500005F5A674C5F84841C1E74FF0FF30BDE836
:10556000F08700BFC08F0000DD470000024B13B181
:10557000024800F005B87047000000008D5500009B
:10558000002301461A461846FFF79EBF38B5074D5F
:10559000074C2C1BA41005D0013C55F8043D98473E
:1055A000002CF9D1BDE8384003F05EBE00000000D9
:1055B00000000000F8B5234F0C460646FFF79EFC9E
:1055C000BB685D6825F00305291B01F6EF7121F426
:1055D0007F6121F00F01A1F58054B4F5805F07DBF6
:1055E00000213046FFF77EFEBB682B44984204D072
:1055F0003046FFF785FC0020F8BD61423046FFF7DA
:1056000071FE01300DD0104BBA6819682D1B45F0A2
:1056100001053046091B55601960FFF771FC012038
:10562000F8BD00213046FFF75DFEBA68831A0F2BE4
:10563000DEDD064C0449246843F00103001B53607F
:105640000860D5E71894FF1FC09BFF1F2498FF1F19
:10565000002945D02DE9F0410D468046FFF74EFC6C
:1056600055F8047C6A4927F00103A5F10804E21803
:105670008E685068B24220F0030062D0FE0750608E
:105680000BD455F8087CE41B01F1080EA56875459C
:105690003B446FD0E768EF60BD6015186D68ED079B
:1056A00042D543F001026260E350B3F5007F18D2A7
:1056B000DB085A1C4D6851F83270A76001209B101E
:1056C00000FA03F301EBC2001D430838E0604D60AF
:1056D00041F83240FC604046BDE8F041FFF710BCA5
:1056E00070475A0A042A53D89A0902F139077F00F1
:1056F00002F1380501EB870051F8272044490838AA
:1057000090424DD0516821F003018B4202D2926841
:105710009042F7D1D068E060A2608460D4604046D7
:10572000BDE8F041FFF7ECBB95683A4FBD4203443A
:105730003FD0D068E86043F0010285606260E350CA
:10574000B3E7FF07034407D455F8082CA41A134401
:10575000A068E268C26090602F4A126843F00100BE
:10576000934260608C60B6D32C4B40461968FFF7BB
:1057700021FFB0E711184968C90744D49168D2687D
:10578000CA60034443F0010091606060E350A2E707
:10579000142A17D802F15C077F0002F15B05A9E724
:1057A000AA104B68012505FA02F213434B6002462A
:1057B000B1E743F001024C610C61E560A5606260F5
:1057C000E35088E7542A06D81A0B02F16F077F00CE
:1057D00002F16E058EE7B2F5AA7F06D8DA0B02F168
:1057E00078077F0002F1770584E740F25450824247
:1057F00006D89A0C02F17D077F0002F17C0579E75B
:10580000FE277E2576E743F001026260E35062E7FF
:105810001894FF1F2094FF1F2098FF1FBC9BFF1FA1
:10582000044A054B1268506B002808BF1846F03038
:10583000704700BFA892FF1FAC92FF1FFFFFFFFF42
:1058400001F0FF01102A2BDB10F0070F08D010F831
:10585000013B013A8B422DD010F0070F42B3F6D135
:10586000F0B441EA012141EA014122F007047FF04E
:1058700000070023F0E80256083C85EA010586EAA5
:10588000010685FA47F5A3FA87F586FA47F6A5FAE1
:1058900087F68EB9EED1F0BC01F0FF0102F00702ED
:1058A00032B110F8013B013A83EA010313B1F8D198
:1058B0000020704701387047002D06BF3546033879
:1058C000073815F0010F07D1013015F4807F02BFB2
:1058D000013015F4C03F0130F0BC0138704700BF03
:1058E000C36C70B505460C464BB153F8240080B12B
:1058F000026843F8242000230361C36070BD2122A5
:10590000042100F02BFBE86403460028EDD10020C1
:1059100070BD012101FA04F6721D2846920000F0C4
:105920001DFB0028F3D044608660E4E731B1C36C0E
:105930004A6853F82200086043F82210704700BFFD
:10594000F0B50C6983B00D46064601F1140E002730
:10595000DEF8000081B202FB01310B0C000C02FBEF
:10596000003389B2013701EB0341BC424EF8041BFE
:105970004FEA1343ECDC3BB1AA68944207DA05EB2B
:105980008402013453612C61284603B0F0BD69687C
:10599000019301313046FFF7A3FF2A69023205F176
:1059A0000C01074692000C30FDF772FEF26C69683C
:1059B000019B52F82100286042F821503D46DEE765
:1059C000030C1B04B3B90004102310F07F4F04BF75
:1059D0000002083310F0704F04BF0001043310F0D0
:1059E000404F04BF80000233002807DB420003D48D
:1059F000202070470023E8E7581C7047184670477E
:105A0000036813F0070207D0D90720D49A0720D4DF
:105A10009B0803600220704799B209B91B0C102241
:105A200013F0FF0F04BF1B0A0832190704BF1B093C
:105A30000432990704BF9B080232D90704D45B08DB
:105A400001D12020704701320360104670470020CA
:105A500070475B0803600120704700BF10B50C461B
:105A60000121FFF73DFF01224461026110BD00BF2B
:105A70002DE9F04F0D691769BD4283B00C461646FB
:105A800004DA2A4634463D460E461746A368616846
:105A900005EB07089845C8BF0131FFF721FF00F16A
:105AA000140C0CEB8809CC45009005D2634600210C
:105AB00043F8041B9945FBD806F1140202EB870A50
:105AC00004F11403524503EB850E54D2CDF8049033
:105AD000994652F8043B1FFA83FBBBF1000F20D01C
