:1000000000800020BD0100001D1E0000E11D000059
:10001000E11D0000E11D0000E11D0000E11D0000E8
:10002000E11D0000E11D0000E11D00001D1E00009B
:100030001D1E0000E11D00001D1E0000D11D00005E
:100040001D1E00001D1E00001D1E00001D1E0000C4
:100050001D1E00001D1E00001D1E00001D1E0000B4
:100060001D1E00001D1E00001D1E00001D1E0000A4
:100070001D1E00001D1E00001D1E00001D1E000094
:100080001D1E00001D1E00001D1E00001D1E000084
:100090001D1E00001D1E00001D1E00001D1E000074
:1000A000AD1C0000BD1C00001D1E00001D1E000038
:1000B0001D1E00001D1E00001D1E00001D1E000054
:1000C0001D1E00001D1E00001D1E00001D1E000044
:1000D0001D1E00001D1E00001D1E00001D1E000034
:1000E0001D1E00001D1E00001D1E00001D1E000024
:1000F0001D1E0000893A00001D1E0000F141000095
:100100001D1E0000754700001D1E00001D1E000082
:100110001D1E00001D1E00001D1E00001D1E0000F3
:100120001D1E00001D1E00001D1E00001D1E0000E3
:100130001D1E00001D1E00001D1E00001D1E0000D3
:100140001D1E00001D1E00001D1E00001D1E0000C3
:100150001D1E00001D1E00001D1E00001D1E0000B3
:100160001D1E00003D2400001D1E00001D1E00007D
:100170001D1E00001D1E00001D1E00001D1E000093
:100180001D1E00001D1E00001D1E00001D1E000083
:100190001D1E00001D1E00001D1E00001D1E000073
:1001A0001D1E00001D1E00001D1E00001D1E000063
:1001B0001D1E00001D1E00001D1E0000564B4CF2AF
:1001C000205210B51A804DF628121A8000BF00BFC9
:1001D00001F028FE514B4FF010621A60504A9A60AD
:1001E000504ADA60504A136813F4807304D14F49BF
:1001F0000B604FF4A85313604D4B1A78110703D5C9
:100200001A7842F008021A704A4B4B492A221A7097
:100210004A4A4B4B8B4204D252F8040F43F8040B6A
:10022000F8E7484B484900228B4202D243F8042B9E
:10023000FAE74649464A002352F8230041F82300D2
:1002400001336F2BF8D1434B434A802103F8011B44
:100250009342FBD1414B3D4A1A60414B8A221A70AE
:10026000A3F5805324225A70A0221A709A7992071B
:10027000FCD59A79D406FCD43A4A937903F00C035E
:10028000082B384BF9D103221A7140225A719A79FE
:100290009006FCD5334A9179324B4906FBD5324A58
:1002A000324911600221516020221A709A7902F0BD
:1002B0000C020C2AFAD12E4B2E4A1A602E4B4BF60A
:1002C0007F321A6000225A60072243F8042C2B4A1E
:1002D000C3F80C2D62B601F06FFF144B1B68DA07F0
:1002E00005D5274801F02CFE264B274A1A60274BDC
:1002F0001B785B0609D5234C234B22689A4204D114
:100300001F4801F01DFE0023236005F04BF901F0AA
:100310008FFD02F0E1FEFEE70E2005403080044034
:10032000823F04000100002B10D0034014D0034092
:1003300002D0074000E007402098FF1F7CA100008A
:100340002087FF1F2098FF1FC89BFF1F0082FF1FF1
:100350000000000000E400E05FE400E008ED00E0E1
:100360000050064000400640448004400000131145
:1003700004800440C010050014E000E000002020CC
:10038000EC211E591CE00340A5C3945A00F007401D
:10039000FFFFFFFFFFFFFFFFFFFFFFFFFFFFFFFF6D
:1003A000FFFFFFFFFFFFFFFFFFFFFFFFFFFFFFFF5D
:1003B000FFFFFFFFFFFFFFFFFFFFFFFFFFFFFFFF4D
:1003C000FFFFFFFFFFFFFFFFFFFFFFFFFFFFFFFF3D
:1003D000FFFFFFFFFFFFFFFFFFFFFFFFFFFFFFFF2D
:1003E000FFFFFFFFFFFFFFFFFFFFFFFFFFFFFFFF1D
:1003F000FFFFFFFFFFFFFFFFFFFFFFFFFFFFFFFF0D
:10040000FFFFFFFFFFFFFFFFFFFFFFFFDEF9FFFF23
:1004100010B5054C237833B9044B13B10448AFF33E
:1004200000800123237010BD2098FF1F00000000F2
:1004300078A10000084B10B51BB108490848AFF37C
:1004400000800848036803B910BD074B002BFBD0A0
:10045000BDE81040184700BF000000002498FF1FAF
:1004600078A100002098FF1F0000000070B584B044
:10047000514B18685149524C1A46524E0B7813F0A2
:10048000FF0F00F08880237813F0030F00F08380C3
:10049000136835685B1B182B7DD94849484C464A80
:1004A000484E42F20F700B7813F0FF0F7AD023788A
:1004B00013F0030F76D0136835685B1B182B71D9C6
:1004C000414D5821284600F025F9404C23685B68CF
:1004D0001F223F49204698470023102295F82C10F0
:1004E000204602F0B3FD204602F08AFD284600F0C7
:1004F00015F9384B0093384B384A3949204602F0F9
:1005000097FD23685B6810223649204698472046AD
:1005100002F076FD23685B6807223349204698473E
:100520003249204602F0CEFD204602F069FD3049F6
:10053000204602F07DFD2F4D4FF4FA632B80236897
:100540005B680D222C49204698472B882B49A1FB3C
:1005500003318909204602F0B5FD23685B68062255
:1005600027492046984723685B680F222549204683
:100570009847204602F044FD23685B680122224927
:1005800020469847204602F03BFD10221F49204696
:1005900002F04EFD0DE013681B1AB3F57A7F7FF66B
:1005A0006DAF7AE713680393039B83427FF67BAFBB
:1005B00086E704B070BD00BFB098FF1F9499FF1F7D
:1005C000A499FF1FC09BFF1F4098FF1FA899FF1F02
:1005D00058980000A49800007898000084980000C3
:1005E000909800001C99000030990000006CDC021B
:1005F000389900007098FF1F60990000D34D621079
:100600007099000078990000549A000088990000C1
:100610002DE9F04383B0314B1B680193019B304AB5
:10062000A2FB03322F4D92092F49284602F000FD0C
:100630002E4CDFF8D880234607229921404600F04F
:10064000A9F82B4F387022462A49284602F0F0FCC0
:10065000DFF8BC901026C9F80060234632469A2184
:10066000404600F097F8387022462349284602F0A9
:10067000DFFCC9F80060234632469B21404600F06B
:1006800089F8387022461D49284602F0D1FCC9F885
:100690000060234632469C21404600F07BF83870CB
:1006A00022461749284602F0C3FC0822C9F8002058
:1006B00023469D21404600F06DF8387022461149CE
:1006C000284602F0B5FC284602F09AFC0E4B18882A
:1006D00001F05CFD03B0BDE8F08300BFB098FF1FE0
:1006E000D34D6210A899FF1FA49900007498FF1FB2
:1006F0008498FF1FAC990000BC990000CC990000C1
:10070000DC990000EC9900007098FF1F4098FF1FD3
:100710003C98FF1F017080F82C10704710B586B010
:100720000378084A517B106901220492064A039219
:100730000022029202240194009200F00DFB06B008
:1007400010BD00BF8898FF1FA086010008291FD890
:10075000DFE801F005090D14180D141809004369AC
:100760000133436170478369013383617047C36913
:100770000133C361002380F828307047036A0133D6
:1007800003627047436A01334362002380F82830D4
:10079000704700BF2DE9F04383B006460F469946E7
:1007A000514C0178204600F041FC5FFA87F823683D
:1007B0001B68414620469847627B002500952B46E2
:1007C0002169204600F02EFF3A464849484802F089
:1007D0002FFC3278617B206901950123009300F0A2
:1007E00035FF012807D04349414802F021FC89F830
:1007F0000050FF2074E03C4C206900F043FFC5B27C
:100800002A463D493A4802F013FC3178204600F070
:100810000DFC23681B68414620469847627B0027F1
:1008200000973B462169204600F0FCFE01353278F6
:10083000617B20690197012300932B4600F006FF9E
:1008400085420DD02D492A4802F0F2FB236993F826
:100850005112C9B231743046FFF778FFFF203FE0F4
:10086000EAB22749224802F0E3FB1F4B1869D0F88F
:100870003821D0F834319A4223D11DE000F002FF34
:100880000546C3B2009322464146384602F0D0FBEB
:100890001CB109EB040303F8015C0134E4B23069D4
:1008A000D0F83821D0F834319A42E7D1022C03D95C
:1008B0004C44002304F8013C0D4802F0A1FB002049
:1008C0000EE000F0DFFEC3B2009300220D4908489D
:1008D00002F0AEFB0024044EDFF82880044FDCE772
:1008E00003B0BDE8F08300BF8898FF1F589A00004E
:1008F000A899FF1F709A0000909A0000AC9A00001F
:10090000C49A0000489A00000369D3F83801D3F86C
:100910003431C01A704700BF704700BF0369D3F875
:100920004422B2F5817F09D8D3F84422501CC3F881
:100930004402134483F83C110120704701230371E2
:100940000020704730B40469D4F84432B3F5817F95
:100950001FD8D4F84452C5F58175013504F59E734E
:10096000D4F84442954202D2012202712A4642B191
:10097000013C23448D1811F8014B03F8014FA942A3
:10098000F9D10169D1F844321344C1F84432104618
:1009900002E001230371002030BC704738B50446E3
:1009A000084B0360036993F84822022A08D1D3F860
:1009B00064522DB1284602F009FB284602F098FB4C
:1009C000204638BDE49A000010B4002202714FF4B2
:1009D0007A7484600273054A026041734FF41C7498
:1009E000034A04FB0121016110BC7047E49A000036
:1009F0000088FF1FC3681B7813F0200F40F0B08001
:100A000070B504460D46836880211970C3681221B1
:100A1000197090F84932012B0BD022B9002380F8CD
:100A20004832012070BD531EDBB2012B00F29A80C8
:100A300000E0012225B94FF080714B4B196005E0B1
:100A4000012D03D14FF00071474B1960022A40F08D
:100A50008380D4F864624EB9082002F045FB064654
:100A6000002102F055FAC4F864627EB13379102B8C
:100A70000CD1304602F0AAFA304602F039FB0023CE
:100A8000C4F86432012084F8480270BD65BB326846
:100A9000938B43F008039383D4F8642213791033C3
:100AA0003248334941F82300127953119B0003F176
:100AB000604303F5614302F01F02012101FA02F2D3
:100AC0001A60D4F864321A68938B43F0020393835C
:100AD000D4F864321B7903F1804303F50433002218
:100AE0001A7096221A702FE0012D2DD1D4F864329D
:100AF0001A68938B43F008039383D4F86422137924
:100B000010331C481A4941F82300127953119B00F5
:100B100003F1604303F5614302F01F02012101FA72
:100B200002F21A60D4F864321A68938B43F002031D
:100B30009383D4F864321B7903F1804303F50433C3
:100B400000221A7097221A70002384F85A32022366
:100B500084F84832012070BD012084F8480270BD3D
:100B600000207047012070BD00E100E0AD1C0000D6
:100B70000082FF1FBD1C000070B4244CA4FB013593
:100B8000AD092B02A4FB0225AD09B3FBF5F5B5F5C4
:100B9000A05F1FDB1E4A012352F8044FB5EB042F60
:100BA00003DB0133372BF7D100E0A3B15C1E184EF5
:100BB00056F82420A5EB0222002AB8BF524256F86C
:100BC0002360A5EB0625002DB8BF6D42AA42D8BF11
:100BD000234600E0002342680E4CE45C14700C4A8B
:100BE00052F82330B1FBF3F3C0F84C320A4B994270
:100BF00003D9836904221A7006E08369074AA2FBBD
:100C00000121C1F30751197070BC7047D34D6210B8
:100C1000FC9A0000D89B0000FF6BDC02819F5E16EF
:100C20002DE9F0479DF820E0BEF1000F72D0C468B6
:100C3000247814F0200F64D16CE0012A64D81C469B
:100C4000154689468046BEF1000F32D090F84B32EF
:100C5000002B0CBF4FF0000A4FF0020A90F84A3206
:100C6000032B26D8DFE803F0020B141D5146112098
:100C700001F0A8F95146102001F0A4F919E05146FD
:100C8000122001F09FF95146132001F09BF910E06A
:100C900051461E2001F096F951461D2001F092F9AF
:100CA00007E051461F2001F08DF951461A2001F04E
:100CB00089F9B9F1000F0DD115B1012D05D009E069
:100CC000214B1E60043B1E6014E0204B1E60043B61
:100CD0001E600FE0B9F1010F0CD1022D06D0032DDB
:100CE00008D11B4B1F6004331F6003E0194B1E60CB
:100CF000043B1E6088F84A5288F84B420120BDE848
:100D0000F0870020BDE8F0870020BDE8F0870020D4
:100D1000BDE8F087002B40F2032608BF4FF4197698
:100D200040F2036440F26467002B18BF2746002995
:100D300083D0012902D00020BDE8F087941E012C49
:100D40007FF67DAFE3E700BF04A004400CA00440A1
:100D500000D004402CB0044070B582B004469DF829
:100D600018600D4629B93048016841F04001016022
:100D700006E0012904D12C48016841F0800101609E
:100D800084F84922002184F851123AB9636920227B
:100D90001A7022681170E269117011E06269002E08
:100DA0003AD130E05B00DBB21370E2697300DBB272
:100DB00005E07600F6B21670E2695B00DBB21370F4
:100DC000002300939DF820309DF81C2029462046E2
:100DD000FFF726FF099A15492046FFF7CDFE9DF83B
:100DE000282029462046FFF705FE94F849321BB912
:100DF000A36880221A7002E0A368C0221A70002340
:100E0000C4F86C320EE02021117022685B00DBB266
:100E10001370E2690023D2E72821117022689E42F4
:100E2000C0D8C6E702B070BD34800440006CDC025C
:100E30002DE9F04F83B090F84A32032B62D8DFE8F7
:100E400003F0400244064FF01208132540E04FF033
:100E50001F081A253CE0404601F0A6F890B9013C75
:100E600014F0FF040ED05146284601F079F83346BD
:100E7000013BFDD14946284601F072F83346013B5B
:100E8000FDD1E8E797F84B3297F84A22002100910C
:100E900059463846FFF7C4FEFB681B7813F07F0FF6
:100EA0000BD0BB6800221A7050231A46013AFDD1BC
:100EB000BA6880211170013BFDD1002387F85132BF
:100EC00020E04FF01108102502E04FF01E081D250C
:100ED0008B46074690F84B32002B0CBF00210221B5
:100EE000404601F06FF80121284601F039F8012150
:100EF000284601F067F80B244FF0000A50264FF007
:100F00000109A8E703B0BDE8F08F00BF2DE9F0416B
:100F100004460E4615461F4601F014F90DB9D4F8E3
:100F2000685201F00FF98046A3681A7812F0200F7A
:100F300002D0B4221A7036E02DB101F003F9C8EBEB
:100F4000000085420AD9E3681B7813F0200FF3D123
:100F5000002384F84932A368B0221A70A3681B7872
:100F600013F0200F13D131462046FFF761FFD4F86C
:100F70006C320133C4F86C32E3681B7813F0200F35
:100F800005D1002384F84932A368B0221A70A368FF
:100F90001B7803F0200303F0FF0023B9042384F837
:100FA0005132BDE8F08194F84832013BDBB2012BAD
:100FB00031D800F059FF16B1012E03D005E0194BCE
:100FC0001B7804E0184B1B7801E0164B1B7883421A
:100FD00024DB0F2803DC01203870BDE8F08116B156
:100FE000012E08D00FE0A0F11003DBB20D4A137000
:100FF0000120BDE8F081A0F11003DBB20A4A1370B2
:101000000120BDE8F081A0F11003DBB2054A1370A6
:101010000120BDE8F0810120BDE8F0810120BDE89C
:10102000F08100BF18E400E019E400E00369490022
:1010300083F83C1103690122C3F8442200230371A1
:10104000026982F8513270472DE9F04383B01E46A1
:1010500000238DF80730D0F84432002B00F0C48014
:10106000044615460EB9D0F86862E36812221A7079
:101070000DF1070332462046FFF748FF002800F035
:10108000B38094F848321BB19DF80720002A53D052
:1010900001F058F88146012384F8513284F8505207
:1010A00004F23B1700254FF00208D4F844329D4269
:1010B00031D22EB101F046F8C9EB000086422AD9A0
:1010C000236917F8012F1A70E268137813F0020FE2
:1010D000FBD082F80080E2681378DBB213F0100FC7
:1010E00008D0072384F8513210231370A36880229C
:1010F0001A7079E013F0010F0BD01DB9052384F8A5
:10110000513202E0062384F85132A36880221A701B
:101110006AE00135C9E7D4F844329D4234BF042364
:10112000002384F8513294F85032012BA3680CBF8D
:101130008022B0221A7057E05A1ED2B2012A53D828
:10114000012284F8512284F850520022C4F840222F
:10115000022B14D1D4F84432042B18D80FE01368B2
:101160009B6833B913680021012018725972997273
:10117000D972136800221A765A769A76DA76A368BC
:10118000F0221A70236994F83C211A702CE0012394
:1011900084F85A32D4F8641204F59F73D4F84422C8
:1011A000033A08680360086800230125057143714C
:1011B0000868C3710868057243728372C372086855
:1011C0005542C5600868C2830968CA82D4F864229F
:1011D0002169106801611068037543751068837197
:1011E000B1F1804FBED3BAE703B0BDE8F08300BFD2
:1011F0002DE9F04182B09DF8205000248DF8074081
:10120000002B00F07981B3F5827F03D3082380F8A7
:10121000513271E1C0F854320023C0F83431C0F8C3
:101220003831099B13B9D0F8683209931646044641
:10123000C36812221A700DF10703099AFFF766FEC0
:10124000002800F0598194F8483223B19DF8072016
:10125000002A00F0918000F075FF0746022384F811
:10126000513284F850522269730043F00103DBB21B
:101270001370E268137813F0020FFBD0022313708F
:10128000E2681378DBB213F0100F08D0072384F85C
:10129000513210231370A36880221A702CE113F0CE
:1012A000010F06D0052384F85132A36880221A70FA
:1012B00022E1032384F85132D4F85432012BA3687D
:1012C0000CBFA822A0221A7023691B7802260025D1
:1012D0004FF0A808D4F83821D4F854329A4280F05C
:1012E0000B8194F85132DBB2032B40F00581E268A8
:1012F000137813F0020FFBD01670099B43B100F076
:1013000021FFC01B099B83428CBF0020012000E00D
:101310002846D4F838310233D4F85422934200F0EE
:101320008280002800F0D08094F85932002B7AD0C7
:10133000B2E0002800F0828094F85932002B40F08F
:10134000CB807BE0042384F8513294F85032012B97
:1013500006D00DE084F8515294F85032012BB9D1E7
:101360001023013BFDD1A36880221A700028B1D060
:10137000012384F85932ABE75A1ED2B2012A00F297
:10138000BB80022284F8512284F85052934240D10B
:10139000D4F85432042B3CD9012384F85A32D4F8BF
:1013A000643221691A681160186800220271427162
:1013B0001868C271B1F1804F02D31A68926832B9CD
:1013C0001A6800210120107251729172D1721A684C
:1013D0000023137353739373D373D4F8641204F11B
:1013E0003000D4F85422013A0D68286108680125BC
:1013F00005754375086883710868057243728372C6
:10140000C3720B685042986108681346C2830A6829
:10141000D382A368F0221A702269730043F001039B
:10142000DBB2137068E0A36883F80080D4F8383129
:101430000133D4F8542293420BD27AE723691A7805
:10144000D4F83831591CC4F83811234483F83020BB
:101450008CE784F85952A368B0221A7023691A786D
:10146000D4F83831591CC4F83811234483F830209B
:1014700000283FF46FAF65E784F85952A368B022A3
:101480001A7023691A78D4F83831591CC4F8381105
:10149000234483F8302055E7D4F838310133D4F8A9
:1014A00054229342E8D244E784F85952A368B02208
:1014B0001A7023691A78D4F83831591CC4F83811D5
:1014C000234483F8302045E7D4F838310133D4F889
:1014D00054229342E8D22CE784F85952A368B022F0
:1014E0001A7023691A78D4F83831591CC4F83811A5
:1014F000234483F8302025E702B0BDE8F08100BF27
:10150000036993F85132043B042B0CD8DFE803F055
:1015100009030507100002207047032070470420CC
:101520007047042070470079003018BF01207047D1
:101530000120704790F8513213F0FF0F1BD090F844
:101540005132DBB2052B18D090F85132DBB2062BAA
:1015500015D090F85132DBB2072B12D090F85132EF
:10156000DBB2042B0FD090F85102C0B2082814BF90
:1015700000200120704701207047012070470120A2
:101580007047012070470120704700BF70B50446C6
:10159000154600F0D7FD0DB9D4F8685200F0D2FD21
:1015A00006462046FFF7C6FF38B9002DF9D000F0F7
:1015B000C9FD801B8542F4D800E0ADB100F0C2FD4A
:1015C000801B854210D894F84832022B0CD194F835
:1015D0005A3213F0FF0F07D02046FFF7ABFF002869
:1015E000FAD0042384F8513294F85132DBB2012B43
:1015F00009D094F85132DBB2022B04D094F8513266
:10160000DBB2032B02D1042384F851324023013B87
:10161000FDD194F8513213F0FF0F0CBF01200020D0
:1016200070BD00BF70B506460C4615461A46049BB1
:1016300029462046FFF708FD049A29462046FFF771
:10164000A5FF3046FFF75CFF70BD00BFA3B130B50A
:1016500083B00D460446079901919DF8181000913A
:101660002946FFF7C5FD079A29462046FFF78EFF5A
:1016700020B1D4F8380102E000207047002003B008
:1016800030BD00BFD0F83421D0F838319A4208D2AA
:10169000D0F834315A1CC0F83421184490F8300086
:1016A00070474FF0FF30704708B50069FFF7EAFF59
:1016B00008BD00BFD0F83421D0F838319A423DBF80
:1016C000D0F83431C01890F830004FF0FF30704738
:1016D00008B50069FFF7EEFF08BD00BF38B5C26866
:1016E0001578EDB281680B78DBB213F0200F00F0B3
:1016F000C18113F0100F00F0058190F85A32DBB26F
:10170000022B04D090F85A32DBB2032B4CD1D0F824
:1017100064120B689B8B03F080039BB2002B00F0DC
:10172000848290F85A32DBB2022B40F07E8272E261
:10173000137813F0800FFBD00A79B54B1A70002391
:1017400080F85A32D0F84432013BC0F84032026986
:10175000D0F84032034493F83C31137020E0AD4B95
:101760001C680A7901239340234219D0AA4B1A70AE
:10177000D0F864321A79A94B1A70002380F85A32D3
:1017800015F0100F0CD0072380F85132C3681222D5
:101790001A70836880221A700023C0F8403238BD66
:1017A000C36802221A7038BD90F85132DBB2012BA7
:1017B00056D115F0100F0DD0002380F85A320721B2
:1017C00080F8511212211170826880211170C0F8C6
:1017D000403238BD15F0010F0FD0002380F85A3287
:1017E000D0F840321BB9052380F8513202E00623BD
:1017F00080F8513280230B702EE0D0F84032013354
:10180000C0F84032D0F8442293420AD3002380F833
:10181000513290F85032012B0CBF8023B0230B7053
:101820001AE090F85A32DBB2012B0ED1022380F875
:101830005A32F1230B70D0F864321A79784B1A704F
:10184000036990F83D211A7006E00269D0F8403231
:10185000034493F83C311370C36802221A7038BDF8
:1018600090F85132DBB2022B36D115F0100F08D0B0
:10187000072380F8513212231370836880221A7074
:1018800038BD15F0010F05D0052380F851328023B3
:101890000B701DE090F85A32DBB2012B0CD1022301
:1018A00080F85A32E1230B70D0F864321A795C4B1D
:1018B0001A7003691B780BE0032380F85132D0F8CB
:1018C0005432012B0CBFE823E0230B7003691B7813
:1018D000C36802221A7038BD90F85132DBB2042B73
:1018E0000AD190F85032012B0CBF8023B0230B702B
:1018F000C36802221A7038BD80230B70C3680222AD
:101900001A7038BD90F85A32DBB2022B04D090F82E
:101910005A32DBB2032B55D1D0F8642213689B8B6B
:1019200003F080039BB2002B00F0908190F85A32B4
:10193000DBB2022B40F08A817EE11279344B1A70BF
:10194000002380F85A3290F85132DBB2042B1CBFCE
:10195000002380F851328368B0221A70D0F85432D4
:10196000013BC0F83831D0F838315A1CC0F8382162
:1019700002691278034483F8302090F85032012B2A
:101980001CD11023013BFDD1836880221A7015E021
:10199000204B19681279012393400B420ED01F4B44
:1019A0001A70D0F864321A791B4B1A70002380F831
:1019B0005A3280F85132836880221A70C36802223A
:1019C0001A7038BDD0F838310233D0F8542293421F
:1019D00000F0438190F85132DBB2042B04D190F82F
:1019E0005932002B00F03981D0F838310133D0F86A
:1019F0005422934280F03F8190F85132DBB2042BA5
:101A000040F02E8190F85932002B40F0348127E1CC
:101A10001C8000402C8000401F8000401E80004041
:101A20001B800040002380F851328368B0221A7076
:101A3000D0F838315A1CC0F83821026912780344B2
:101A400083F8302090F85032012B05D11023013B50
:101A5000FDD1836880221A7090F85132DBB2042BDA
:101A600004D190F85932002B00F00F81C368022294
:101A70001A7038BD044615F0100F08D010231370EB
:101A800015F0400F06D1C36802221A7038BD15F058
:101A9000400F60D094F85132DBB20A2B04D1D4F855
:101AA0005C32002B40F0F58015F0040F1ED00923A6
:101AB00084F851320023C4F84432A368D0221A704B
:101AC00023691B785B0884F85232D4F8603203B182
:101AD0009847D4F844320BB984F83C31236994F820
:101AE0003C211A700123C4F8403230E0002384F80E
:101AF000583294F84A32012B05D10322684912204A
:101B000000F0A0FA15E02BB903226549112000F07E
:101B100099FA0EE0022B05D1032262491E2000F043
:101B200091FA06E0032B04D103225E491F2000F046
:101B300089FA0A2384F851320023C4F83831A368A3
:101B4000C0221A7023691B785B0884F85232E3685C
:101B500002221A7038BD13F0100F20D015F0010FBB
:101B600015D1D0F84022D0F844329A4208D2D0F8A9
:101B700040325A1CC0F84022034493F83C2100E054
:101B8000002223691A70A368D0221A703FE0C02394
:101B90000B7003691B78002380F8513237E090F80E
:101BA0005132DBB20A2B32D1002380F8583290F840
:101BB0004A32012B05D103223949122000F042FAA2
:101BC00015E02BB903223649112000F03BFA0EE054
:101BD000022B05D1032233491E2000F033FA06E020
:101BE000032B04D103222F491F2000F02BFA236975
:101BF0001B78DBB2D4F83821B2F5817F07D8D4F84E
:101C00003821511CC4F83811224482F83030E3687E
:101C100002221A7038BD0A79234B1A708368F022A9
:101C20001A70032380F85A32BAE590F85A32DBB2C0
:101C3000032B7FF494AD7BE512791B4B1A708368FC
:101C4000E8221A70032380F85A32B7E690F85A3225
:101C5000DBB2032B7FF49CAE6FE6E8230B70C3E688
:101C6000D0F838315A1CC0F8382102691278034480
:101C700083F83020F0E6002380F8593290F8513292
:101C8000DBB2042B7FF4CEAECFE6012380F85932CD
:101C9000ECE60022C4F83421D4F83801984703E771
:101CA000711D0000811D00001F80004008B500214B
:101CB0000148FFF713FD08BD0088FF1F08B501218B
:101CC0000148FFF70BFD08BD708AFF1F10B50446E1
:101CD000C3681B7813F0200F24D1002380F8513201
:101CE00090F84A32012B03D1122000F0DFF80FE008
:101CF0001BB9112000F0DAF80AE0022B03D11E20F4
:101D000000F0D4F804E0032B02D11F2000F0CEF83D
:101D1000D4F85C3253B30022C4F83421D4F838012B
:101D2000984710BD90F858320133DBB280F8583232
:101D3000012B03D890F84932012B17D094F84A327E
:101D4000012B03D1122000F0B1F810BD1BB91120F6
:101D500000F0ACF810BD022B03D11E2000F0A6F855
:101D600010BD032B02D11F2000F0A0F810BD00BF52
:101D700008B500210148FFF7A9FF08BD0088FF1F33
:101D800008B501210148FFF7A1FF08BD708AFF1FB8
:101D900070B50B4C00212046FEF716FE094E0A4D89
:101DA00032462946204603F0EBFB084C0121204631
:101DB000FEF70AFE32462946204603F0E1FB70BDDD
:101DC0009C98FF1FFC87FF1F9D0900008898FF1F3C
:101DD000024A136801331360704700BFB098FF1FB9
:101DE00008B50D4C236813F4802F01D000F026FBBA
:101DF000236813F4806F01D001F046FE236813F4CA
:101E0000006F01D002F0F4F9236813F4805FE9D089
:101E100002F0B0FCE6E700BF3480044008B5FFF7ED
:101E2000DFFF00BF1022014B1A80704700200540E1
:101E3000704700BF08B50B4B1B6880B16A46181885
:101E4000A2F58052904206D303F0A6FB0C23036058
:101E50004FF0FF3008BD034A1060184608BD184611
:101E600008BD00BFE08CFF1FEFF31383ABB9EFF3A6
:101E70001083ABB9EFF3058323B10F2B05D9094AC2
:101E8000985C03E04FF4807000E00020EFF31183D2
:101E90003BB1984228BF184670474FF0FF3070475B
:101EA00000207047F0E300E0704700BF1D4B03EBDC
:101EB000C000436803F14042A2F592227C2A18D95F
:101EC00003F14042A2F594227C2A14D903F1404246
:101ED000A2F596227C2A10D903F14042A2F598225D
:101EE0007C2A0CD903F14042A2F59A227C2A08D917
:101EF00070470D4906E00D4904E00D4902E00D4927
:101F000000E00D4972B61A6822F0877222F480321E
:101F100042F080721A60C3F38403084A41F8232018
:101F200062B67047109C0000E48CFF1F1C8DFF1FE1
:101F30006C8DFF1F9C8DFF1FBC8DFF1FA91E000015
:101F4000044B00221A6004490A60044A10601022FF
:101F50001A60704714D0034004D0034000D00340FF
:101F600021281ED80F4B53F8303093F8802212F0FE
:101F7000FF0F08D019B1012283F880207047012299
:101F800083F800217047074B03EBC000436821B181
:101F90001A6842F003021A6070471A6822F00202BF
:101FA0001A607047109C0000212806D8044B53F893
:101FB000303093F80002C0B270470020704700BF75
:101FC000109C000021283AD81D4B03EBC0035B682E
:101FD000012919D0042925D0194A52F830200020AF
:101FE00082F8800219B94FF480721A607047022992
:101FF00003D140F203121A60704703290CBF4FF45B
:10200000817200221A6070470D4A52F83020012177
:1020100082F880124FF4A2721A601A6822F020022D
:102020001A607047064A52F83020012182F8801267
:102030004FF4A2721A601A6842F020021A607047C8
:10204000109C000070B5212862D8042A60D8DFE80F
:1020500002F0070905030B00092606E00A2604E042
:10206000082602E00C2600E00B260D463604294B1C
:1020700003EBC0035C68236813F4E06F02D1002116
:10208000FFF7A0FF244B254AC3F89C21244AC3F83C
:10209000A021244AC3F8A421234AC3F8A821234A33
:1020A000C3F8AC2104F14043A3F592237C2B18D94B
:1020B00004F14043A3F594237C2B14D904F140434D
:1020C000A3F596237C2B10D904F14043A3F5982364
:1020D0007C2B0CD904F14043A3F59A237C2B08D91F
:1020E00070BD134906E0134904E0134902E01349A7
:1020F00000E0134972B6236823F4702343F0807222
:102100002360C4F3840341F823501643266062B66B
:1021100070BD00BF109C00000082FF1FD187FF1F11
:10212000A587FF1F7987FF1F4D87FF1F2187FF1F8F
:10213000E48CFF1F1C8DFF1F6C8DFF1F9C8DFF1FEC
:10214000BC8DFF1F72B60D4B1B680D4A10680D4AFF
:10215000126862B612F0806F02D0322B88BF013055
:10216000C3F53B437F33084AA2FB03234FF47A7243
:1021700002FB00F000EB5310704700BF18E000E0D6
:10218000B098FF1F04ED00E0ABAAAAAA38B5054637
:10219000FFF7D8FF044625B938BD013D0AD004F544
:1021A0007A74FFF7CFFF001BB0F57A7FF5D200F00D
:1021B000D3FFF6E738BD00BF10B5274B4FF4000240
:1021C0001A604FF080721A604FF000721A604FF080
:1021D00080621A604FF000621A6000201F4B186086
:1021E0004BF6FF710433196028231D4A136008322F
:1021F000136008321360083213600832136008322B
:10220000136008321360083213600922154C2260F3
:1022100004F58054043420600434216004342360C5
:1022200008342360143C226004F5FE24043420604A
:102230000D4801600D490B6008310B600C4B1A60B2
:1022400001F046F83220FFF7A1FF00F07DFC4FF4CB
:10225000AF70FFF79BFF10BD08E100E00480034072
:102260000C8003400080034008800B400C800B4032
:1022700000800B4010B40E4B1B7843F002040D4A53
:1022800002EBC40250600C4A1278002A14BFC82026
:10229000882040EA0141074840F8341082F00102EA
:1022A00005490A7083F00103014A137010BC70479E
:1022B0001C99FF1F0080FF1F9599FF1F431E032BD2
:1022C00011D872B60B4A52F8230080B110B441689D
:1022D00042F82310084931F813200488121B21F812
:1022E000132062B601E00020704710BC704762B650
:1022F000704700BF0C99FF1FB09BFF1F01380328D8
:102300000DD872B6074B53F820302BB100200130A6
:102310005B68002BFBD100E0002062B67047002014
:10232000704700BF6099FF1F38B572B61B49012383
:102330001B4C11F8012B12F0080F24D09A0054F80E
:1023400032506DB9164B03EBC20108304860154995
:1023500043F83210144A1378013B137062B638BD4B
:1023600042F0010254F832506DB90D4B03EBC2013B
:10237000083048600D4943F832100B4A1378013B8E
:10238000137062B638BD0133052BD2D162B600227C
:10239000054B1A7000F03EFC38BD00BF489D0000A0
:1023A0000080FF1F880040008A99FF1FC80040007E
:1023B000431E032B39D810B4400140F010001B4AD3
:1023C000104472B61A4AD25C032A0BD8DFE802F036
:1023D0001B040207052217E00830022214E008302F
:1023E000042211E0134A52F823201AB9114A42F884
:1023F000231003E0104A52F8232051600E4A42F89D
:10240000231062B610E00322094CE25401F10803E4
:10241000436000F00803002B14BFC82388230A88F8
:1024200043EA0243036062B610BC70470080FF1F9E
:10243000C898FF1F6099FF1F7099FF1F2DE9F04F8B
:1024400085B0AA4CDFF8F4A2DFF8F4B22578EDB23B
:1024500015F0040F1DD0A64B1B7813F0FF0F16D0FC
:10246000A44B1A7802F0FF032AB1013BDBB2A14A68
:10247000137003B900BEA04B1A7802F0FF0332B10B
:10248000013BDBB29C4A13700BB900F01DFD042325
:10249000237015F0080F00F0ED829AF80030DBB2DF
:1024A0001D0940F02882954E9D0806EBC5035A6829
:1024B00056F83530C3F38303013B0C2B00F217822F
:1024C000DFE813F0D201D201150215021502150240
:1024D00015021502EF011502150215020D008849BB
:1024E00013680B6052684A60864A46F8352000221D
:1024F00085490A6081490A618A610121834A117014
:102500009BB240F28162934218D8B3F5D06F2ED2BD
:10251000B3F5817F00F02B8106D8802B00F0D780A7
:10252000822B00F0DA806DE140F20232934200F03B
:102530003381B3F5A06F00F0698163E142F22102BB
:10254000934200F08D8107D8B3F5086F00F0B98091
:10255000B3F5106F11D055E142F22122934200F001
:10256000488142F22132934200F050814AE1684BA7
:102570005D68002D40F0258137E1614B9A785C4B16
:102580001A705E4D05F180062B6A13F0800F03D0A0
:10259000686A083800F03EFB0835B542F4D15D4B5F
:1025A0000093DFF8A0815C4B0193DFF89C9100273A
:1025B0003E46009B0293186828B1456800F02AFB4C
:1025C0002846002DF9D1029B1E600297534B43F819
:1025D0002760CDF80C80D8F8000028B1456800F0DD
:1025E00019FB2846002DF9D1039B1E60019B43F87F
:1025F000046B01934A4B029A23F8126099F8003059
:10260000023B032B09D8DFE803F00205020589F835
:10261000006002E0012389F800300137009B043399
:10262000009308F1040809F10109042FC1D1002227
:102630003C4B1A7001253C4EDFF810912F4F90460D
:1026400019F8013B06F8043B13F0080F2BD000F0FB
:10265000C1FA034640B1AA0007EB451108334B60AD
:10266000324947F8321006E0AB0047F833802D4A74
:1026700013780133137000F0ADFA024650B1AB008D
:1026800043F0010307EBC30108324A601D4A47F8D3
:10269000332008E0AB0043F0010347F83380214AC0
:1026A000137801331370AB0043F0020247F8328015
:1026B00043F0030347F8338001351D4B9E42BFD1E1
:1026C00017E20B4B1B781B4D2B700123A3E0194D18
:1026D00000232B706B7002239DE0094B9B88042B19
:1026E00036D90F22144B1A70BAE000BF8020074081
:1026F0009499FF1F1D99FF1F9699FF1F0080FF1FD0
:102700008099FF1FC8004000B498FF1F9599FF1FD4
:102710004C9D00000C99FF1F7099FF1FB898FF1F78
:10272000B09BFF1F8A99FF1FC4200740880040000C
:10273000D42007408C99FF1FC020074090200740FD
:10274000942007406099FF1FC898FF1F489D000014
:102750009D4A0021117051709C4A12F8233013F0E9
:10276000020F56D0984D01232B70022353E0984B53
:102770009B8803F07F03042B02DC954A52881AB130
:102780000F22924B1A706BE0904911F8232022F02F
:10279000020201F82320ACE18D4B9B8803F07F03FC
:1027A000042B02DC8A4A52881AB10F22874B1A7016
:1027B00056E0864911F8232042F0020201F8232056
:1027C00097E1834B59889888824B1A888A4208D1AE
:1027D0005A88824205D1090A03290CBF2B781B892C
:1027E00019E00C335D68002DEFD10F22774B1A7082
:1027F00036E0794B1A68794B1A60754B9A78784BAA
:102800001A7076E10F22714B1A7029E000231D46E1
:1028100001E002236C4D6E4AD6889E4228BF1E46B8
:102820003746402E28BF402739462846FFF722FD6D
:102830003D44F61B03D13F2F00F2608110E0374684
:10284000402E28BF402739462846FFF713FD3D4458
:10285000F61B01D13F2F03D9624B1D60624B1E80D6
:1028600001238BF8003042E0594B198842F22103D2
:10287000994212D15D4BD01D12F8011B03F8011FC4
:102880008242F9D15A4B1B68862B02D10F22594B39
:102890001A7000210846FFF7EDFC574B46F835301B
:1028A00025E0504B1F68BFB1DFF83C81B8F80050FD
:1028B0002E46402D28BF402631463846FFF7DAFC29
:1028C000AD1BADB2A8F800500DB9402E01D13E4469
:1028D00000E00026434B1E603D4B1B88B3F5A06F04
:1028E00005D13B4B00225A709B78444A1370012358
:1028F0008BF80030BBE0424E9F0806EBC708D8F8C3
:102900000420A2F10800013DEDB213F0080F47D0FA
:1029100000F080F93B4B53F825304BB35968394AE6
:1029200042F8251003F10802C8F80420364A525D27
:10293000032A12D8DFE802F002060A0E0321324A07
:1029400051550AE00221304A515506E005212E4A30
:10295000515502E004212C4A515518F0080F14BFBC
:10296000C82288221B8842EA034346F837307EE0BB
:10297000254B5B5D032B0BD8DFE803F0797902066A
:102980000022214B5A5572E001221F4B5A556EE02E
:1029900018F0080F14BF032202221B4B5A5566E0A1
:1029A00056F837301B0C22F8083C002B57D0002378
:1029B00022F8063C42F8043C144B53F825303BBB4C
:1029C000124B43F8250027E08C99FF1FC0200740D9
:1029D0008099FF1F4C9D0000B098FF1FC09BFF1FF8
:1029E000A499FF1FB498FF1F8899FF1FB79BFF1F73
:1029F000B89BFF1F1D99FF1FC8004000982007408B
:102A00000080FF1F6099FF1FC898FF1F0C99FF1FD0
:102A10003E4B53F8253058603C4B43F825003C4969
:102A200031F8150032F8083C034421F8153000F065
:102A3000D1F8034658B10833C8F8043018F0080F2D
:102A4000344A354B08BF134646F837300FE00023B1
:102A500046F83730314A13780133137007E018F025
:102A6000080F2C4A2C4B08BF134646F83730082372
:102A70002370EBE415F0010F21D0294902230B70DC
:102A80000022284B1A70284B22481860274C5C60A3
:102A900098602748D8601A619A610D20254B1870FC
:102AA000FF23254803700838037018300270234A4A
:102AB00013709F22224B1A7001230B7023E015F034
:102AC000800F05D00D221B4B1A708022403B1A70DC
:102AD00015F0020F06D0184A1378DBB213700222E9
:102AE000184B1A7015F0100F0DD01022154B1A70DC
:102AF00009E000210846FFF7BDFBB1E600212846AA
:102B0000FFF7B8FBACE605B0BDE8F08FB898FF1F43
:102B1000B09BFF1F88004000C80040008A99FF1F3B
:102B2000942007401C99FF1F0080FF1FCC98FF1FB7
:102B30002099FF1FC0200740882007408C200740B5
:102B4000842007408020074008B501F085FE1C481E
:102B500000F18801034600221A605A6008338B4254
:102B6000FAD1184A136843F480231360C0F3072294
:102B7000154B1A70C0F3074214331A70000E043359
:102B80001870FF23114A137008321370783A1370CB
:102B900001238432137000216C3211707C3A13705F
:102BA00070220B4B1A704FF40072A3F241331A607B
:102BB000102203F1C04303F5C8231A7008BD00BFFB
:102BC0000080FF1F348004409C2007408020074085
:102BD00049E400E072B60D4B1A68B2FA82F30B2B8F
:102BE00002D962B6002070474FF00041D94022EA76
:102BF000010206490A6062B6054903EBC303DB0024
:102C0000C8180022CA504260704700BFC48DFF1F21
:102C1000BC83FF1F08B50F4BC31A0F4AA2FB032347
:102C20001B090B2B14D80D4A12783AB10C4A1278B2
:102C300012F0FF0F02D0FFF777FB08BD72B609490B
:102C40004FF0004222FA03F30A681A430A6062B6A0
:102C500008BD00BFBC83FF1F398EE3388A99FF1F70
:102C60009499FF1FC48DFF1F10B5134B1B6853B9F8
:102C7000124B1B7813F0FF0F18D00320FFF71EFB39
:102C80000D4B1860A8B10C4B186843885A1C0344BC
:102C90001C7A03889A4206D3FFF7BCFF0022064B3A
:102CA0001A60204610BD4280204610BD4FF0FF3014
:102CB00010BD4FF0FF3010BDA099FF1F9499FF1F6A
:102CC00008B50D4B1B6883B90C4B1B7813F0FF0F35
:102CD00008D00320FFF7F2FA074B186028B94FF02D
:102CE000FF3008BD4FF0FF3008BD034B1A68538812
:102CF0001344187A08BD00BFA099FF1F9499FF1FC5
:102D0000044B9888044B1B681BB11A885B88D31A44
:102D100018447047B09BFF1FA099FF1F0B4B1B78F7
:102D200013F0FF0F11D010B5094B186820B1FFF751
:102D300071FF0022064B1A6003242046FFF7BEFAFB
:102D400010B1FFF767FFF8E710BD70479499FF1FB8
:102D5000A099FF1F2DE9F84F0122374B1A708A46C0
:102D6000002963D004460D46344FDFF8DC809946D5
:102D7000334E3B6883BB98F8003013F0FF0F06D149
:102D800000222D4B1A704FF0FF30BDE8F88F47F24C
:102D9000095B0420FFF7B2FA072809D8012389F854
:102DA0000030FFF717FF3860B0B9002389F8003012
:102DB000BBF1010B01D0337833B10122204B1A70E3
:102DC0004FF0FF30BDE8F88F00F0C6F998F80030FA
:102DD00013F0FF0FDDD1D3E70023337039684A8841
:102DE000C2F14000A84228BF284601F1080302EBC7
:102DF000000EA1F802E02D1A48B1013A1344204414
:102E000014F8012B03F8012FA042F9D104464B8896
:102E10003F2B06D940230B800420FFF7C9FA00237B
:102E20003B600522074B1A70002DA2D10022024BF5
:102E30001A705046BDE8F88F9799FF1F9899FF1FA9
:102E40009C99FF1F9699FF1F9499FF1F00B583B0AF
:102E500002AB03F8010D01211846FFF77BFF03B019
:102E60005DF804FB144B1B7813F0FF0F23D010B553
:102E70000122124B1A70124B196851B10024114BE8
:102E80001C704B880B800420FFF792FA0C4B1C60DF
:102E90000DE0FFF79FFE014630B10022094B1A708A
:102EA0000420FFF785FA02E00122064B1A70002287
:102EB000024B1A7010BD70479499FF1F9799FF1F1E
:102EC0009899FF1F9699FF1F08B50E4B1B7813F0BA
:102ED000FF0F16D10C4B196841B14B880B800420B1
:102EE000FFF766FA0022084B1A6008BDFFF772FE72
:102EF000014618B10420FFF75BFA08BD0122034B1D
:102F00001A7008BD9799FF1F9899FF1F9699FF1F88
:102F100010B472B609B9026822B9294B1C8821463F
:102F2000002311E003790F2BF7D8254909881941AF
:102F300011F0010FF1D003F1007303F59063B2EBD0
:102F4000431FEAD162B639E041FA03F212F0010FF1
:102F50002CD101229A401443194A148062B6DAB285
:102F60000271184C216841F002012160043C216883
:102F700041F002012160822413490C601A310A7069
:102F800004310A7006390A7007310A7003F10073C0
:102F900003F590635B01036000221A605A609A6037
:102FA000DA601A615A619A61DA6107E00133102B25
:102FB000CAD162B6002303601023037110BC7047AE
:102FC000A699FF1F408004400080004003790F2B2A
:102FD00010D8094A137072B608490279012303FA1E
:102FE00002F20B8823EA02030B8062B610230371FE
:102FF00000230360704700BF1A800040A699FF1F9E
:1030000000B583B0054B1B88ADF8043003685B68DE
:10301000022201A9984703B05DF804FB209D00003F
:1030200010B5144603685B689847204610BD00BF82
:103030000EB400B582B003AA52F8041B019203F04B
:1030400013F902B05DF804EB03B07047F0B58BB034
:1030500022B903681B68C9B2984731E01646012AB5
:1030600014BF16460A2621B930228DF825202124C6
:1030700017E021243746B1FBF6F206FB1212D2B25A
:103080002546092A94BF30323732D2B20DF1280ECC
:10309000754405F8242CB1FBF7F111B1013CE4B201
:1030A000E9E733B1013CE4B20AAB23442D2203F833
:1030B000242C03685B68C4F1220201A921449847CB
:1030C0000BB0F0BD08B50029BABF49422D2300233B
:1030D0000A22FFF7BBFF08BD08B5FDF7C7F9FDF7EA
:1030E00097FA00F039F8FAE708B502F083FA08BD5C
:1030F00008B502F087FA08BD08B5FFF70FFE08BD56
:1031000008B5FFF7AFFE08BD08B5FFF7D9FD08BD4C
:1031100008B5FFF7A9FD08BD08B5FFF7F1FD08BD2B
:1031200008B508461146FFF715FE08BD08B5084664
:10313000FFF78CFE08BD00BF704700BF044B0022A4
:103140001A714FF47A7199601A73024A1A607047C3
:10315000A899FF1F2C9D000008B50F4B1B78CBB919
:1031600001220D4B1A70FFF7CBFD08B1FFF7E4FF0A
:1031700000F000FC08B101F047FC00F0AFFF08B11F
:1031800001F0E4FC01F080FA08B101F081FD0022B9
:10319000014B1A7008BD00BFB899FF1F844641EA71
:1031A000000313F003036DD1403A41D351F8043BBF
:1031B00040F8043B51F8043B40F8043B51F8043B11
:1031C00040F8043B51F8043B40F8043B51F8043B01
:1031D00040F8043B51F8043B40F8043B51F8043BF1
:1031E00040F8043B51F8043B40F8043B51F8043BE1
:1031F00040F8043B51F8043B40F8043B51F8043BD1
:1032000040F8043B51F8043B40F8043B51F8043BC0
:1032100040F8043B51F8043B40F8043B51F8043BB0
:1032200040F8043B51F8043B40F8043B403ABDD21F
:10323000303211D351F8043B40F8043B51F8043BC1
:1032400040F8043B51F8043B40F8043B51F8043B80
:1032500040F8043B103AEDD20C3205D351F8043B50
:1032600040F8043B043AF9D2043208D0D2071CBF1C
:1032700011F8013B00F8013B01D30B880380604645
:10328000704700BF082A13D38B078DD010F00303BB
:103290008AD0C3F10403D21ADB071CBF11F8013B2B
:1032A00000F8013B80D331F8023B20F8023B7BE77A
:1032B000043AD9D3013A11F8013B00F8013BF9D2A5
:1032C0000B7803704B7843708B788370604670473F
:1032D00060223A4B1A70E12201331A70384B1B7886
:1032E000082B10D1012203F1804303F56C331A60DF
:1032F000132334490B6001F5FF2101F2FC710A60D0
:10330000314A13601FE00A2B0DD139222F4B1A606E
:1033100013232C490B6001F5FF2101F2FC710A60B7
:10332000294A13600FE00C2B0CBF35223D22274B9E
:103330001A60122323490B6001F5FF2101F2FC7191
:103340000A60214A1360224B1B7833B10123214AC2
:10335000136002F50022136005E000231D4A13608C
:1033600002F5002213601C4B1B78012B06D880232A
:103370001A4A136002F5002213601AE0042B06D8E3
:103380008423164A136002F50022136011E0082B13
:1033900006D88523114A136002F50022136008E065
:1033A000102B94BF862387230C4A136002F500225A
:1033B000136001220A4B1A70704700BF004007409B
:1033C000C88DFF1F0CB003400CB00B4008B0034089
:1033D000BA99FF1F20B00340C98DFF1F24B00340DE
:1033E000B999FF1FF0B44D1E2E460024B0FBF2F336
:1033F00002FB13032746092B94BF30333733DBB26C
:1034000006F8013FB0FBF2F008B10134EEE70B190A
:1034100000225A7094420BDD1A46002315F8010F62
:1034200014782C7002F801090133F81A8342F5DB95
:103430000846F0BC704700BF254A136843F4806318
:1034400013600023234A1370234A1370234A137016
:10345000234A1370234A1370234B1B7813B1152B87
:1034600005D008E040F21332204B1A6003E040F22E
:1034700013321F4B1A601F4B1B78012B02D0052BF8
:1034800005D008E04FF451721B4B1A6003E04FF473
:1034900051721A4B1A60C0F34432194B1A70C0F3C0
:1034A00047125A7000F01F00987204229A7002218D
:1034B000D9745A7588221A743C22DA704022114B52
:1034C0001A704FF40052A3F229331A60704700BFFC
:1034D00034800440489AFF1FC199FF1F509AFF1F74
:1034E000499AFF1FC099FF1F049AFF1F40A0044084
:1034F00018C00440CA8DFF1F44A004401CC00440F3
:1035000000A006402DE400E0154B9B7803F0EC0290
:1035100000F00303134310F0040F18BF43F010032F
:103520000F4A937000F00F03042B03D1937943F0FB
:10353000400393710A4B5B7903F0EF0310F0100F17
:1035400018BF43F01003064A5371937903F0EF0359
:1035500010F0200F18BF43F01003014A9371704719
:1035600000A00640224B1B6813F4806F3FD010B5BB
:10357000204B1B7813F0FF0F06D01E4CFFF7ECFD1D
:10358000237813F0FF0FF9D14FF400521A4B1A6051
:1035900000221A4BDA701A4B1B7813B1152B05D089
:1035A00008E040F20312174B1A6003E040F20312E6
:1035B000154B1A60154B1B7803F07F03012B02D0CB
:1035C000052B05D008E040F20312114B1A6003E00E
:1035D00040F203120F4B1A6000230F4A13700F4A78
:1035E00013700F4B1B680BB101221A7010BD70478E
:1035F00034800440C099FF1F84E100E000A0064031
:10360000049AFF1F40A0044018C00440CA8DFF1F49
:1036100044A004401CC00440489AFF1FC199FF1FEA
:10362000BC99FF1F10B50446094A137813F0FF0F29
:10363000FBD101212046FEF7C5FC00212046FEF704
:103640008FFC044B53F83420034B1A6010BD00BFAD
:10365000C099FF1F109C00004C9AFF1F10B40C462D
:1036600009B140F08000174B1B78984228D0164AC9
:10367000126812F4806F21D003F07F03012B02D077
:10368000052B04D006E00022104B1A6002E0002255
:103690000F4B1A60002C14BF6023442300F07F02FC
:1036A000012A02D0052A05D008E043F44073074AF6
:1036B000136003E043F44073054A1360014B187034
:1036C00010BC7047CA8DFF1F3480044044A00440E2
:1036D0001CC00440114B1B7883421ED0104A126854
:1036E00012F4806F17D013B1152B04D006E000221E
:1036F0000C4B1A6002E000220B4B1A6010B1152827
:1037000005D008E040F21332064B1A6003E040F2A5
:103710001332054B1A60014B18707047049AFF1F53
:103720003480044040A0044018C004400D4B1B6886
:1037300013F4806F13D021280DD810B50A4C0B4B11
:1037400053F8303023600121FEF73CFC236800224F
:103750001A70012010BD0020034B18607047002034
:10376000704700BF34800440BC99FF1F109C0000CC
:10377000114B1B6813F4806F1BD0122804D140F248
:1037800002320E4B1A600DE0142804D140F20232CE
:103790000B4B1A6006E00B4A537B03F0FE03537396
:1037A00000207047074A537B43F001035373012005
:1037B00070470020704700BF348004400CA00440D4
:1037C00014C0044000A00640214B1B6813F4806F16
:1037D0003CD02DE9F0411F4B1B680BB101221A7040
:1037E00007461D4B1C780134402C28BF00241B4D7C
:1037F0001B4EDFF8708017E0FEF736FB40280FDC29
:10380000337913F0800F0FD02B780133402B28BF72
:10381000002318F80320D2B2F271DBB22B7003E060
:10382000FF2801DDFFF798FC2B78DBB29C42E3D048
:10383000FFB20C4B1F5501220B4B1A70E4B2064B22
:103840001C70BC22064BDA70BDE8F081704700BFE7
:10385000348004404C9AFF1F509AFF1F499AFF1F63
:1038600000A00640C499FF1FC099FF1F284B1B688A
:1038700013F4806F4AD02DE9F0470646254B1B68AC
:103880000BB101221A7006EB010A564539D2DFF856
:103890009480214D214FDFF8909098F8004001343A
:1038A000402C28BF00242B78DBB29C421DD1BC23C6
:1038B000FB70FEF7D9FA40280FDC3B7913F0800F3C
:1038C0000FD02B780133402B28BF002319F8032099
:1038D000D2B2FA71DBB22B7003E0FF2801DDFFF7F3
:1038E0003BFC2B78DBB29C42E3D016F8013B09F895
:1038F000043001220A4B1A70E4B288F80040B24545
:10390000CBD1BC22054BDA70BDE8F087704700BF11
:10391000348004404C9AFF1F499AFF1F00A00640C4
:10392000C099FF1F509AFF1FC499FF1F074B1B78B8
:1039300013F0FF0F08D010B5044CFFF70DFC2378EF
:1039400013F0FF0FF9D110BD704700BFC099FF1FE2
:10395000064B1B78DBB2064A1078C0B283422CBFFC
:103960003F3000F1FF30C01A704700BF509AFF1F70
:10397000499AFF1F054B1878C0B2054B1B78DBB284
:10398000984238BF4030C01A704700BF489AFF1FA6
:10399000C199FF1F10B4184B1B78DAB2174B1B7874
:1039A000DBB29A4217D001333F2B17D81449C85CB9
:1039B000C0B2D9B2114C217012490968C9B19A42FA
:1039C00002D3FFE7D31A01E04032D31A1A2B10DCDE
:1039D00000230B700DE04FF0FF300AE0084B187821
:1039E000C0B20021054B1970064B1968002300294D
:1039F000E8D110BC704700BF489AFF1FC199FF1F54
:103A0000089AFF1FBC99FF1F094B1A78D2B2094BC5
:103A10001B78DBB29A4207D00133402B28BF00232A
:103A2000054AD05CC0B270474FF0FF30704700BF0E
:103A3000489AFF1FC199FF1F089AFF1F0D4B1B6873
:103A400013F4806F14D00C4BDA7802F0CB02DA70EA
:103A500040225A74DA7842F03402DA70074B1B784D
:103A6000DBB2074A1370074B1B680BB100221A70B8
:103A7000704700BF3480044000A00640C199FF1F7A
:103A8000489AFF1FBC99FF1F70B43E4B1B7913F07F
:103A9000300F32D072B63B4B9B7D03F0FF022BB947
:103AA000384BDA7940225A7462B626E062B6364B59
:103AB0001878C0B2354B1C78E4B2324D344EEB79F5
:103AC000D9B2431C402B28BF0023A3421CBFF15492
:103AD0001846531E13F0FF02F1D1C3B22A4A1370E5
:103AE0002C4B1B684BB1A0422EBF001BC4F14004FD
:103AF00000192728C4BF01221A70224BDA78D2B2EB
:103B000012F0800F29D01B7913F0800F25D0224BA3
:103B10001C78E4B2214B1B78DBB29C4212D01948CE
:103B20001F4D01E0A3420CD00133402B28BF0023DE
:103B30000179E95CC9B2C171017DC9B20729F1D926
:103B400000E02346DBB215490B700E4B1B7913F0D6
:103B5000800F02D07C210B4BD97012F0400F0ED099
:103B6000084B1B7913F0400F09D000220D4B1A703F
:103B70000D4B1B6803B11A703C22024BDA7070BC0B
:103B8000704700BF00A00640489AFF1FC199FF1F61
:103B9000089AFF1FBC99FF1F509AFF1F499AFF1FE9
:103BA000C499FF1FC099FF1F4C9AFF1F254A136835
:103BB00043F4006313600023234A1370234A1370F5
:103BC000234A1370234A1370234A1370234B1B7824
:103BD000092B02D01A2B05D008E040F21332204BFB
:103BE0001A6003E040F213321E4B1A601E4B1B7822
:103BF0000A2B02D01F2B05D008E04FF451721B4B4B
:103C00001A6003E04FF45172194B1A60C0F344324A
:103C1000184B1A70C0F347125A7000F01F009872C8
:103C200004229A700221D9745A7588221A743C228F
:103C3000DA704022104B1A704FF40042A3F22B337B
:103C40001A60704734800440C49AFF1F599AFF1FBE
:103C5000CC9AFF1FC59AFF1F589AFF1FCB8DFF1FDD
:103C60000CB0044004D00440CC8DFF1F10B00440C1
:103C700000D0044000B006402FE400E0154B9B78D4
:103C800003F0EC0200F00303134310F0040F18BF1D
:103C900043F010030F4A937000F00F03042B03D17D
:103CA000937943F0400393710A4B5B7903F0EF0380
:103CB00010F0100F18BF43F01003064A53719379A8
:103CC00003F0EF0310F0200F18BF43F01003014A78
:103CD0009371704700B00640234B1B6813F4006FCC
:103CE00040D010B5214B1B7813F0FF0F06D01F4CAE
:103CF000FFF732FA237813F0FF0FF9D14FF40042A7
:103D00001B4B1A6000221B4BDA701B4B1B78092BD4
:103D100002D01A2B05D008E040F20312174B1A60AC
:103D200003E040F20312164B1A60164B1B7803F0A7
:103D30007F030A2B02D01F2B05D008E040F20312AC
:103D4000114B1A6003E040F20312104B1A6000237B
:103D50000F4A13700F4A13700F4B1B680BB10122EF
:103D60001A7010BD704700BF34800440589AFF1F7E
:103D700084E100E000B00640CB8DFF1F0CB0044092
:103D800004D00440CC8DFF1F10B0044000D004408C
:103D9000C49AFF1F599AFF1F549AFF1F10B504467B
:103DA000094A137813F0FF0FFBD101212046FEF7DB
:103DB00009F900212046FEF7D3F8044B53F83420CC
:103DC000034B1A6010BD00BF589AFF1F109C0000E3
:103DD000C89AFF1F10B40C4609B140F08000174B81
:103DE0001B78984228D0164A126812F4006F21D02E
:103DF00003F07F030A2B02D01F2B04D006E0002221
:103E0000104B1A6002E000220F4B1A60002C14BF06
:103E10006023442300F07F020A2A02D01F2A05D023
:103E200008E043F44073074A136003E043F440732F
:103E3000054A1360014B187010BC7047CC8DFF1FF2
:103E40003480044010B0044000D00440124B1B7872
:103E5000834220D0114A126812F4006F19D0092B46
:103E600002D01A2B04D006E000220D4B1A6002E0AB
:103E700000220C4B1A60092802D01A2805D008E04D
:103E800040F21332064B1A6003E040F21332054B46
:103E90001A60014B18707047CB8DFF1F34800440AF
:103EA0000CB0044004D004400D4B1B6813F4006FA9
:103EB00013D021280DD810B50A4C0B4B53F83030D5
:103EC00023600121FEF77EF8236800221A7001208A
:103ED00010BD0020034B186070470020704700BFE2
:103EE00034800440549AFF1F109C00000D4B1B6847
:103EF00013F4006F13D017280AD140F202320A4B94
:103F00001A600A4A537B43F0010353730120704740
:103F1000064A537B03F0FE035373002070470020D2
:103F2000704700BF3480044008B0044000B0064031
:103F3000214B1B6813F4006F3CD02DE9F0411F4B5F
:103F40001B680BB101221A7007461D4B1C78013407
:103F5000282C28BF00241B4D1B4EDFF8708017E073
:103F6000FDF782FF40280FDC337913F0800F0FD06C
:103F70002B780133282B28BF002318F80320D2B256
:103F8000F271DBB22B7003E0FF2801DDFFF7E4F8EC
:103F90002B78DBB29C42E3D0FFB20C4B1F550122C1
:103FA0000B4B1A70E4B2064B1C70BC22064BDA7045
:103FB000BDE8F081704700BF34800440C89AFF1FFD
:103FC000CC9AFF1FC59AFF1F00B006405C9AFF1FE6
:103FD000589AFF1F284B1B6813F4006F4AD02DE935
:103FE000F0470646254B1B680BB101221A7006EB01
:103FF000010A564539D2DFF89480214D214FDFF870
:10400000909098F800400134282C28BF00242B7889
:10401000DBB29C421DD1BC23FB70FDF725FF40287D
:104020000FDC3B7913F0800F0FD02B780133282B56
:1040300028BF002319F80320D2B2FA71DBB22B702B
:1040400003E0FF2801DDFFF787F82B78DBB29C4205
:10405000E3D016F8013B09F8043001220A4B1A702C
:10406000E4B288F80040B245CBD1BC22054BDA70EF
:10407000BDE8F087704700BF34800440C89AFF1F36
:10408000C59AFF1F00B00640589AFF1FCC9AFF1F29
:104090005C9AFF1F074B1B7813F0FF0F08D010B579
:1040A000044CFFF759F8237813F0FF0FF9D110BD36
:1040B000704700BF589AFF1F064B1B78DBB2064AB9
:1040C0001078C0B283422CBF273000F1FF30C01AF5
:1040D000704700BFCC9AFF1FC59AFF1F054B187889
:1040E000C0B2054B1B78DBB2984238BF4030C01AD3
:1040F000704700BFC49AFF1F599AFF1F10B4184B96
:104100001B78DAB2174B1B78DBB29A4217D0013317
:104110003F2B17D81449C85CC0B2D9B2114C2170DA
:1041200012490968C9B19A4202D3FFE7D31A01E0E4
:104130004032D31A1A2B10DC00230B700DE04FF025
:10414000FF300AE0084B1878C0B20021054B197007
:10415000064B196800230029E8D110BC704700BF46
:10416000C49AFF1F599AFF1F849AFF1F549AFF1F7A
:10417000094B1A78D2B2094B1B78DBB29A4207D0AE
:104180000133402B28BF0023054AD05CC0B27047E2
:104190004FF0FF30704700BFC49AFF1F599AFF1FAE
:1041A000849AFF1F0D4B1B6813F4006F14D00C4B47
:1041B000DA7802F0CB02DA7040225A74DA7842F0F0
:1041C0003402DA70074B1B78DBB2074A1370074BD7
:1041D0001B680BB100221A70704700BF3480044086
:1041E00000B00640599AFF1FC49AFF1F549AFF1F40
:1041F00070B43E4B1B7913F0300F32D072B63B4B8C
:104200009B7D03F0FF022BB9384BDA7940225A74B8
:1042100062B626E062B6364B1878C0B2354B1C78D1
:10422000E4B2324D344EEB79D9B2431C402B28BF57
:104230000023A3421CBFF1541846531E13F0FF0283
:10424000F1D1C3B22A4A13702C4B1B684BB1A04268
:104250002EBF001BC4F1400400192728C4BF01224F
:104260001A70224BDA78D2B212F0800F29D01B7963
:1042700013F0800F25D0224B1C78E4B2214B1B7821
:10428000DBB29C4212D019481F4D01E0A3420CD072
:104290000133282B28BF00230179E95CC9B2C17121
:1042A000017DC9B20729F1D900E02346DBB21549E7
:1042B0000B700E4B1B7913F0800F02D07C210B4B3F
:1042C000D97012F0400F0ED0084B1B7913F0400F3D
:1042D00009D000220D4B1A700D4B1B6803B11A70E8
:1042E0003C22024BDA7070BC704700BF00B0064041
:1042F000C49AFF1F599AFF1F849AFF1F549AFF1FE9
:10430000CC9AFF1FC59AFF1F5C9AFF1F589AFF1F88
:10431000C89AFF1F174A136843F4805313600023A1
:10432000154A1370154A1370154A1370154A137005
:10433000154A137040F21331144A11604FF4517151
:1043400004321160C0F34431114A1170C0F34711B7
:10435000517000F01F009072937013742C23D3706F
:1043600040220C4B1A704FF40032A3F22D331A6026
:10437000704700BF34800440409BFF1FD59AFF1F49
:10438000489BFF1F419BFF1FD49AFF1F08C004409A
:1043900000C0064031E400E0154B9B7803F0EC02CE
:1043A00000F00303134310F0040F18BF43F0100391
:1043B0000F4A937000F00F03042B03D1937943F05D
:1043C000400393710A4B5B7903F0EF0310F0100F79
:1043D00018BF43F01003064A5371937903F0EF03BB
:1043E00010F0200F18BF43F01003014A937170477B
:1043F00000C00640144B1B6813F4805F23D010B537
:10440000124B1B7813F0FF0F06D0104CFEF7A4FEE2
:10441000237813F0FF0FF9D14FF400320C4B1A60E0
:1044200000230C4AD37040F203120B490A60043196
:104430000A600A4A13700A4A13700A4B1B680BB1D0
:1044400001221A7010BD704734800440D49AFF1FB7
:1044500084E100E000C0064008C00440409BFF1F0C
:10446000D59AFF1FD09AFF1F10B50446094A13784A
:1044700013F0FF0FFBD101212046FDF7A3FD002122
:104480002046FDF76DFD044B53F83420034B1A60B2
:1044900010BD00BFD49AFF1F109C0000449BFF1F5B
:1044A00010B40C4609B140F08000104B1B789842C4
:1044B00019D00F4A126812F4805F12D003F07F0304
:1044C000082B02D100220B4B1A60002C14BF602372
:1044D000442300F07F02082A03D143F44073054AC5
:1044E0001360024B187010BC704700BFCD8DFF1FCA
:1044F000348004400CC00440704700BF0D4B1B6863
:1045000013F4805F13D021280DD810B50A4C0B4B43
:1045100053F8303023600121FDF754FD2368002259
:104520001A70012010BD0020034B18607047002056
:10453000704700BF34800440D09AFF1F109C0000D9
:104540000D4B1B6813F4805F13D00E280AD140F284
:1045500002320A4B1A600A4A537B43F00103537339
:1045600001207047064A537B03F0FE03537300207B
:1045700070470020704700BF3480044004C00440EE
:1045800000C00640214B1B6813F4805F3CD02DE92E
:10459000F0411F4B1B680BB101221A7007461D4BDF
:1045A0001C780134282C28BF00241B4D1B4EDFF83B
:1045B000708017E0FDF758FC40280FDC337913F0CA
:1045C000800F0FD02B780133282B28BF002318F839
:1045D0000320D2B2F271DBB22B7003E0FF2801DDC1
:1045E000FEF7BAFD2B78DBB29C42E3D0FFB20C4B56
:1045F0001F5501220B4B1A70E4B2064B1C70AC2203
:10460000064BDA70BDE8F081704700BF348004408B
:10461000449BFF1F489BFF1F419BFF1F00C006409C
:10462000D89AFF1FD49AFF1F38B505460C4629B10A
:1046300015F8010BFFF7A6FF013CF9D138BD00BF0B
:10464000074B1B7813F0FF0F08D010B5044CFEF792
:1046500083FD237813F0FF0FF9D110BD704700BF21
:10466000D49AFF1F064B1B78DBB2064A1078C0B203
:1046700083422CBF273000F1FF30C01A704700BFC3
:10468000489BFF1F419BFF1F054B1878C0B2054B8D
:104690001B78DBB2984238BF4030C01A704700BF69
:1046A000409BFF1FD59AFF1F10B4184B1B78DAB23E
:1046B000174B1B78DBB29A4217D001333F2B17D828
:1046C0001449C85CC0B2D9B2114C217012490968B2
:1046D000C9B19A4202D3FFE7D31A01E04032D31A9C
:1046E0001A2B10DC00230B700DE04FF0FF300AE0B6
:1046F000084B1878C0B20021054B1970064B196899
:1047000000230029E8D110BC704700BF409BFF1F69
:10471000D59AFF1F009BFF1FD09AFF1F094B1A78E5
:10472000D2B2094B1B78DBB29A4207D00133402B3F
:1047300028BF0023054AD05CC0B270474FF0FF305D
:10474000704700BF409BFF1FD59AFF1F009BFF1FB4
:10475000054B1B78DBB2054A1370054B1B680BB188
:1047600000221A70704700BFD59AFF1F409BFF1FA1
:10477000D09AFF1F2E4B1B7913F0200F22D02C4B09
:10478000DB79D9B22B4B1B780133402B28BF002398
:10479000294A1278D2B2934204D0284AD154DAB2CC
:1047A00024490A70264A116861B1264A1278D2B2A9
:1047B00093422EBF9B1AC2F140029B18272BC4BF05
:1047C00001230B701A4BDB78DBB213F0800F1CD087
:1047D000174A127912F0800F17D01B4A1178C9B20C
:1047E000184A1278D2B2914203D16C21104AD1708A
:1047F0000BE00132282A28BF00221449895CC9B283
:104800000B48C171D2B20F490A7013F0400F0ED09D
:10481000074B1B7913F0400F09D000220C4B1A7084
:104820000C4B1B6803B11A702C22014BDA707047D5
:1048300000C00640409BFF1FD59AFF1F009BFF1F33
:10484000D09AFF1F419BFF1F489BFF1FD89AFF1F55
:10485000D49AFF1F449BFF1F72B61D4B70221A7023
:1048600041211C4A11700F21013A117080221A70E7
:104870001A46137813F0800FFBD000B585B0164BA5
:10488000186862B6154B98429CBF00EB8000400050
:104890000A2201A9FEF7A6FD9DF804307BB908E0C5
:1048A00010F8012F32B121F8022F01330A2BF7D172
:1048B00000E0002301335B00094A137005E008495A
:1048C00021F8023F01A80123EAE705B05DF804FBE7
:1048D0000000024007000240080002407F96980056
:1048E0005C8EFF1F08B503681B68C9B2984708BDF6
:1048F00008B503681B68C9B2984708BD08B50368C6
:104900001B68C9B2984708BD08B503681B68C9B2DF
:10491000984708BD08B50846FEF756FF012008BDB8
:1049200008B50846FEF750FF012008BD38B50D4612
:10493000084601F005FC044601462846FEF796FFAE
:10494000204638BD10B5084614461146FEF78EFFC6
:10495000204610BD08B5FEF7FBFF08BD08B5FFF700
:104960006DF808BD08B50846FEF702FF003018BF15
:10497000012008BD08B50846FEF7D8FE003018BF74
:10498000012008BD08B508461146FEF767FE08BDC0
:1049900008B50846FEF79EFE08BD00BF08B50846EC
:1049A000FEF740FE08BD00BF08B5FEF7DBFD08BD01
:1049B00008B54B0803F1B76000F55840B0FBF1F0C3
:1049C000FEF73AFD08BD00BF10B514464B0803F1D1
:1049D000B76000F55840B0FBF1F0FEF72DFD204622
:1049E000FEF792FD10BD00BF08B5FEF79FFF08BDA2
:1049F00008B5FFF709F808BD08B5FEF7CBFF08BDFD
:104A000008B5FEF7B7FF08BD704700BF044B002292
:104A10001A714FF47A7199601A73024A1A607047DA
:104A20004C9BFF1FA89D000008B503681B68C9B216
:104A3000984708BD08B503681B68C9B2984708BD08
:104A400008B503681B68C9B2984708BD08B5036874
:104A50001B68C9B2984708BD08B50846FFF768FA51
:104A6000012008BD08B50846FFF762FA012008BD1D
:104A700038B50D46084601F063FB0446014628465A
:104A8000FFF7A8FA204638BD10B50846144611466F
:104A9000FFF7A0FA204610BD08B5FFF70DFB08BDD3
:104AA00008B5FFF77FFB08BD08B50846FFF71EFAFB
:104AB000003018BF012008BD08B50846FFF7F4F91B
:104AC000003018BF012008BD08B508461146FFF7A1
:104AD00081F908BD08B50846FFF7B8F908BD00BF61
:104AE00008B50846FFF75AF908BD00BF08B5FFF73B
:104AF000F3F808BD08B54B0803F1B76000F558405E
:104B0000B0FBF1F0FFF752F808BD00BF10B5144636
:104B10004B0803F1B76000F55840B0FBF1F0FFF728
:104B200045F82046FFF7AAF810BD00BF08B5FFF70B
:104B3000B1FA08BD08B5FFF71BFB08BD08B5FFF7C4
:104B4000DDFA08BD08B5FFF7C9FA08BD704700BF18
:104B5000044B00221A714FF47A7199601A73024A59
:104B60001A6070475C9BFF1F089E000008B5036831
:104B70001B68C9B2984708BD08B503681B68C9B26D
:104B8000984708BD08B503681B68C9B2984708BDB7
:104B900008B503681B68C9B2984708BD08B5084640
:104BA000FFF7F0FC012008BD08B50846FFF7EAFC56
:104BB000012008BD38B50D46084601F0C1FA04468B
:104BC00001462846FFF730FD204638BD10B508469F
:104BD00014461146FFF728FD204610BD08B5FFF723
:104BE00041FD08BD08B5FFF7B3FD08BD08B508468F
:104BF000FFF7A6FC003018BF012008BD08B5084625
:104C0000FFF77CFC003018BF012008BD08B508463E
:104C10001146FFF745FC08BD08B50846FFF76CFCD8
:104C200008BD00BF08B50846FFF71EFC08BD00BF61
:104C300008B5FFF7DFFB08BD08B54B0803F1B76007
:104C400000F55840B0FBF1F0FFF764FB08BD00BF72
:104C500010B514464B0803F1B76000F55840B0FB9F
:104C6000F1F0FFF757FB2046FFF796FB10BD00BFA2
:104C700008B5FFF7E5FC08BD08B5FFF74FFD08BD17
:104C800008B5FFF711FD08BD08B5FFF7FDFC08BD2D
:104C9000704700BF044B00221A714FF47A7199607B
:104CA0001A73024A1A6070476C9BFF1F689E0000CF
:104CB00081F0004102E000BF83F0004330B54FEACD
:104CC00041044FEA430594EA050F08BF90EA020F3A
:104CD0001FBF54EA000C55EA020C7FEA645C7FEACD
:104CE000655C00F0E2804FEA5454D4EB5555B8BFF0
:104CF0006D420CDD2C4480EA020281EA030382EA61
:104D0000000083EA010180EA020281EA0303362DF2
:104D100088BF30BD11F0004F4FEA01314FF4801CC5
:104D20004CEA113102D0404261EB410113F0004FD7
:104D30004FEA03334CEA133302D0524263EB43038E
:104D400094EA050F00F0A780A4F10104D5F1200E2C
:104D50000DDB02FA0EFC22FA05F2801841F1000187
:104D600003FA0EF2801843FA05F359410EE0A5F15B
:104D700020050EF1200E012A03FA0EFC28BF4CF08C
:104D8000020C43FA05F3C01851EBE37101F0004542
:104D900007D54FF0000EDCF1000C7EEB00006EEB4F
:104DA0000101B1F5801F1BD3B1F5001F0CD34908D9
:104DB0005FEA30004FEA3C0C04F101044FEA445230
:104DC00012F5800F80F09A80BCF1004F08BF5FEAB7
:104DD000500C50F1000041EB045141EA050130BD97
:104DE0005FEA4C0C404141EB010111F4801FA4F13A
:104DF0000104E9D191F0000F04BF01460020B1FA8F
:104E000081F308BF2033A3F10B03B3F120020CDAC6
:104E10000C3208DD02F1140CC2F10C0201FA0CF0A4
:104E200021FA02F10CE002F11402D8BFC2F1200C09
:104E300001FA02F120FA0CFCDCBF41EA0C019040BF
:104E4000E41AA2BF01EB0451294330BD6FEA040408
:104E50001F3C1CDA0C340EDC04F11404C4F12002F3
:104E600020FA04F001FA02F340EA030021FA04F305
:104E700045EA030130BDC4F10C04C4F1200220FA5C
:104E800002F001FA04F340EA0300294630BD21FA9A
:104E900004F0294630BD94F0000F83F4801306BF60
:104EA00081F480110134013D4EE77FEA645C18BF54
:104EB0007FEA655C29D094EA050F08BF90EA020FEB
:104EC00005D054EA000C04BF1946104630BD91EAE3
:104ED000030F1EBF0021002030BD5FEA545C05D1E6
:104EE0004000494128BF41F0004130BD14F5800425
:104EF0003CBF01F5801130BD01F0004545F0FE4199
:104F000041F470014FF0000030BD7FEA645C1ABFCD
:104F1000194610467FEA655C1CBF0B46024650EA04
:104F2000013406BF52EA033591EA030F41F4002130
:104F300030BD00BF90F0000F04BF0021704730B5B6
:104F40004FF4806404F132044FF000054FF000018B
:104F500050E700BF90F0000F04BF0021704730B54C
:104F60004FF4806404F1320410F0004548BF404221
:104F70004FF000013EE700BF42004FEAE2014FEA76
:104F800031014FEA02701FBF12F07F4393F07F4F51
:104F900081F06051704792F0000F14BF93F07F4F83
:104FA000704730B54FF4607401F0004521F00041C6
:104FB00020E700BF50EA010208BF704730B54FF04C
:104FC00000050AE050EA010208BF704730B511F051
:104FD000004502D5404261EB41014FF4806404F189
:104FE00032045FEA915C3FF4DCAE4FF003025FEA0B
:104FF000DC0C18BF03325FEADC0C18BF033202EB93
:10500000DC02C2F1200300FA03FC20FA02F001FAEC
:1050100003FE40EA0E0021FA02F11444C1E600BF8B
:1050200070B54FF0FF0C4CF4E06C1CEA11541DBF3E
:105030001CEA135594EA0C0F95EA0C0F00F0DEF809
:105040002C4481EA030621EA4C5123EA4C5350EAEE
:10505000013518BF52EA033541F4801143F480133F
:1050600038D0A0FB02CE4FF00005E1FB02E506F0D0
:105070000042E0FB03E54FF00006E1FB03569CF025
:10508000000F18BF4EF0010EA4F1FF04B6F5007F2B
:1050900064F5407404D25FEA4E0E6D4146EB06069D
:1050A00042EAC62141EA55514FEAC52040EA5E5026
:1050B0004FEACE2EB4F1FD0C88BFBCF5E06F1ED8D0
:1050C000BEF1004F08BF5FEA500E50F1000041EB07
:1050D000045170BD06F0004646EA010140EA0200B4
:1050E00081EA0301B4EB5C04C2BFD4EB0C0541EAD6
:1050F000045170BD41F480114FF0000E013C00F3EB
:10510000AB8014F1360FDEBF002001F0004170BD0E
:10511000C4F10004203C35DA0C341BDC04F1140427
:10512000C4F1200500FA05F320FA04F001FA05F2B3
:1051300040EA020001F0004221F0004110EBD37080
:1051400021FA04F642EB06015EEA430E08BF20EAAC
:10515000D37070BDC4F10C04C4F1200500FA04F34F
:1051600020FA05F001FA04F240EA020001F00041E1
:1051700010EBD37041F100015EEA430E08BF20EA54
:10518000D37070BDC4F1200500FA05F24EEA020E9C
:1051900020FA04F301FA05F243EA020321FA04F0CB
:1051A00001F0004121FA04F220EA020000EBD37082
:1051B0005EEA430E08BF20EAD37070BD94F0000F82
:1051C0000FD101F00046400041EB010111F4801FB6
:1051D00008BF013CF7D041EA060195F0000F18BF67
:1051E000704703F00046520043EB030313F4801FA3
:1051F00008BF013DF7D043EA0603704794EA0C0F5D
:105200000CEA135518BF95EA0C0F0CD050EA410672
:1052100018BF52EA4306D1D181EA030101F00041EF
:105220004FF0000070BD50EA410606BF1046194617
:1052300052EA430619D094EA0C0F02D150EA013623
:1052400013D195EA0C0F05D152EA03361CBF104664
:1052500019460AD181EA030101F0004141F0FE4103
:1052600041F470014FF0000070BD41F0FE4141F487
:10527000780170BD70B54FF0FF0C4CF4E06C1CEA87
:1052800011541DBF1CEA135594EA0C0F95EA0C0F3C
:1052900000F0A7F8A4EB050481EA030E52EA0335F7
:1052A0004FEA013100F088804FEA03334FF0805518
:1052B00045EA131343EA12634FEA022245EA111545
:1052C00045EA10654FEA00260EF000419D4208BFF6
:1052D000964244F1FD0404F5407402D25B084FEAA3
:1052E0003202B61A65EB03055B084FEA32024FF44F
:1052F00080104FF4002CB6EB020E75EB030E22BFAC
:10530000B61A754640EA0C005B084FEA3202B6EB6B
:10531000020E75EB030E22BFB61A754640EA5C001A
:105320005B084FEA3202B6EB020E75EB030E22BFAA
:10533000B61A754640EA9C005B084FEA3202B6EBAB
:10534000020E75EB030E22BFB61A754640EADC006A
:1053500055EA060E18D04FEA051545EA16754FEACC
:1053600006164FEAC30343EA52734FEAC2025FEAEA
:105370001C1CC0D111F4801F0BD141EA00014FF079
:1053800000004FF0004CB6E711F4801F04BF01434A
:105390000020B4F1FD0C88BFBCF5E06F3FF6AFAE66
:1053A000B5EB030C04BFB6EB020C5FEA500C50F1F6
:1053B000000041EB045170BD0EF0004E4EEA113179
:1053C00014EB5C04C2BFD4EB0C0541EA045170BD80
:1053D00041F480114FF0000E013C90E645EA060EC4
:1053E0008DE60CEA135594EA0C0F08BF95EA0C0FF2
:1053F0003FF43BAF94EA0C0F0AD150EA01347FF43A
:1054000034AF95EA0C0F7FF425AF104619462CE710
:1054100095EA0C0F06D152EA03353FF4FDAE104673
:10542000194622E750EA410618BF52EA43067FF4C4
:10543000C5AE50EA41047FF40DAF52EA43057FF454
:10544000EBAE12E74FF0FF3C06E000BF4FF0010C5F
:1054500002E000BF4FF0010C4DF804CD4FEA410CC3
:105460007FEA6C5C4FEA430C18BF7FEA6C5C1BD090
:1054700001B050EA410C0CBF52EA430C91EA030F11
:1054800002BF90EA020F0020704710F1000F91EA6E
:10549000030F58BF994208BF90422CBFD8176FEA3C
:1054A000E37040F0010070474FEA410C7FEA6C5C0A
:1054B00002D150EA013C07D14FEA430C7FEA6C5C11
:1054C000D6D152EA033CD3D05DF8040B704700BF3D
:1054D0008446104662468C461946634600E000BF8B
:1054E00001B5FFF7B7FF002848BF10F1000F01BD5D
:1054F0004DF808EDFFF7F4FF0CBF012000205DF828
:1055000008FB00BF4DF808EDFFF7EAFF34BF0120AC
:1055100000205DF808FB00BF4DF808EDFFF7E0FF45
:1055200094BF012000205DF808FB00BF4DF808ED96
:10553000FFF7CEFF94BF012000205DF808FB00BFFD
:105540004DF808EDFFF7C4FF34BF012000205DF8DF
:1055500008FB00BF4FEA410C7FEA6C5C02D150EAC5
:10556000013C0AD14FEA430C7FEA6C5C02D152EA5B
:10557000033C02D14FF0000070474FF0010070472C
:105580000B460146184600F001B800BF13460A4614
:105590000146022000F098BE014B1868704700BF1A
:1055A000A092FF1F70B50F4E0F4D761BB61018BF9F
:1055B000002405D0013455F8043B9847A642F9D1A0
:1055C0000A4E0B4D761B04F0C1FDB61018BF002427
:1055D00006D0013455F8043B9847A642F9D170BD76
:1055E00070BD00BF58A1000058A1000074A10000C8
:1055F00058A10000024B0146186800F00BB800BF2C
:10560000A092FF1F024B0146186800F021BF00BFA7
:10561000A092FF1F2DE9F04F01F10B05162D83B06D
:10562000064640F29F8035F0070500F1BF80A94291
:1056300000F2BC8000F06EFBB5F5FC7FC0F09C82F0
:105640006B0A00F0BA80042B00F28381A80900F1F4
:10565000390E4FEA4E033830C44F07EB8303A3F1F2
:1056600008015C68A14207D1ACE0002A80F2AC805E
:10567000E468A14200F0A680636823F003035A1B8C
:105680000F2AF2DDB9493C6901F1080E744500F0BA
:10569000B381636823F003035A1B0F2A00F3998137
:1056A000002AC1F814E0C1F810E080F29E80B3F542
:1056B000007F80F06781DB0803F1010C01229B1061
:1056C00002FA03F34A6851F83C80C4F8088001EB01
:1056D000CC091A43A9F10803E3604A6041F83C4051
:1056E000C8F80C40831001249C40944200F28A8048
:1056F000144206D120F003006400144200F10400BB
:10570000FAD007EBC009CC468046DCF80C108C457B
:1057100007D173E1002A80F28181C9688C4500F0CD
:105720006D814B6823F003035A1B0F2AF2DD0C46F0
:10573000D1F80CC054F8088F4B1945F001054D60A5
:1057400042F00101C8F80CC03046CCF808807B61FB
:105750003B61C3F80CE0C3F808E059609A5000F0D0
:10576000DBFA1FE0102921D800F0D4FA1025062317
:1057700002207E4F07EB8303A3F108025C6894428A
:1057800000F045816368E168A56823F003032344C2
:1057900030465A68E96042F001028D605A6000F0BC
:1057A000BBFA0834204603B0BDE8F08F00240C2378
:1057B0002046336003B0BDE8F08F80234FF0400EE9
:1057C0003F2049E770465DE72344E1685A68A568D1
:1057D00042F00102E96030468D605A6000F09CFAA8
:1057E0000834204603B0BDE8F08F234430465A68A1
:1057F00042F001025A6000F08FFA0834204603B0EC
:10580000BDE8F08FBC68636823F00308A84504D3A3
:10581000C5EB08030F2B00F38C80554BDFF860912C
:105820001A68D9F8003001332A4404EB080A00F062
:10583000608102F580520F3222F47F6222F00F0263
:1058400011463046019200F059FCB0F1FF3F83460B
:10585000019A00F05881824500F2FC80454B19689E
:10586000DA451144196000F05381D9F80000DFF8DF
:1058700010E101301BBFCAEB0B0A5144CEF800B057
:1058800019601BF0070100F01781C1F10800C1F594
:105890008051834408315A44C2F30B02C2EB010920
:1058A00049463046019300F029FC431C019B00F05F
:1058B0003F81CBEB00024A4442F001021968C7F86D
:1058C00008B04944BC42CBF804201960DFF8A4902A
:1058D00016D0B8F10F0F40F2FD806268A8F10C03FA
:1058E00023F00703E01802F001024FF0050E1A43FF
:1058F0000F2B6260C0F804E0C0F808E000F21C81E1
:105900001D4BBC681A68914288BF19601B4B1A680E
:105910009142626888BF196022F003029542A2EBAF
:10592000050301D80F2B04DC304600F0F5F9002404
:1059300038E7621943F0010345F001056560304620
:10594000BA60536000F0E8F90834204603B0BDE8BF
:10595000F08F142B71D9542B00F2A480280B00F186
:105960006F0E4FEA4E036E3076E600BF1094FF1FB5
:10597000849BFF1F889BFF1F809BFF1F7C9BFF1F3B
:105980001C98FF1F5A0A042A5ED9142A00F2B38019
:1059900002F15C0149005B3207EB810C57F82110E2
:1059A000DFF8DC81ACF1080C8C4500F088804A6897
:1059B00022F00302934202D289688C45F7D1D1F8D4
:1059C0000CC07A68C4F80CC0A160CCF80840CC6068
:1059D00088E6631942F0010745F00105656030462D
:1059E0004B610B61C3F80CE0C3F808E05F609A50AC
:1059F000083400F091F9D5E64A6873E608F1010829
:105A000018F0030F0CF1080C7FF47FAE30E0DC6877
:105A1000A34208BF02303FF435AEB3E60B440C4658
:105A20005A68C96854F8085F42F001025A6030466B
:105A3000E9608D6000F070F9B4E603F15C0E03F1EB
:105A40005B004FEA4E0307E69A0902F1390149006B
:105A50003832A1E7BC424A4B3FF400AF9C68626811
:105A600022F003025AE759F80839994540F082803C
:105A700010F0030F00F1FF30F5D17B6823EA040337
:105A80007B6064009C423FF6BDAE002C3FF4BAAE92
:105A90001C4240467FF435AE64001C4200F1040015
:105AA000FAD02EE6B3F5AA7F18D8E80B00F1780EED
:105AB0004FEA4E037730CFE54FF48051EBE60121FA
:105AC000D8F80430921001FA02F21A43C8F8042000
:105AD000614677E70123CBF8043025E740F25452C2
